:020000021000EC
:1080000000400020C1100200FD100200FF1002001D
:108010000000000000000000000000000000000060
:10802000000000000000000000000000011102003C
:108030000000000000000000031102000511020012
:1080400007110200E9B20100C50C0200071102008D
:108050000711020000000000C10E0200071102001B
:10806000071102002D080200310E02000711020064
:108070000711020007110200071102000711020098
:108080000711020007110200071102000711020088
:1080900007110200D50302006DF70100071102006D
:1080A000071102000711020000000000000000009C
:1080B00000000000000000000000000000000000C0
:1080C00010B5064C2378002B07D1054B002B02D0AE
:1080D000044800E000BF0123237010BDC020002031
:1080E00000000000B47F0200044B10B5002B03D049
:1080F0000349044800E000BF10BDC0460000000076
:10810000C4200020B47F0200164B002B00D1144B7A
:108110009D46402292029A1A924600218B460F46B3
:108120001348144A121A0EF0DAFD0F4B002B00D040
:1081300098470E4B002B00D09847002000210400E8
:108140000D000D48002802D00C4800E000BF0AF0E6
:1081500013FF200029000EF039FB0AF0F7FEC0469D
:1081600000000800004000200000000000000000A7
:10817000B8200020102900200000000000000000AE
:1081800010B50400034B036040300BF03AFC2000B4
:1081900010BDC046E46E020070B5114C050001210F
:1081A000200002F0BBFF20000024002102F0B6FFF7
:1081B0002C800C4E0021300002F0B0FF0A4802F083
:1081C000E3FF80B2A0402B880121C0182880013431
:1081D000300002F0A3FF102CEBD1288870BDC04600
:1081E00000210020E0200020F0200020F7B500262C
:1081F0003700284C651C6A782B789B18AA789B1846
:10820000EA789B182A799B18052B29D1224901A8C5
:1082100001F022FB022201A920480CF0EFFD01A889
:108220000BF0EFFB1E4A300013680A33136007237C
:1082300000227343E318002811D00121CF1FDF5D16
:108240005F5401310629F9D1053901382170627076
:10825000A270E27022716271A171073BEBE7012706
:1082600001360735052EC6D1002F11D00025002676
:108270000722724363199B185B7832B229B209480E
:10828000013601F067FB052EF2D10135052DEED147
:108290003800FEBD0F2800205C7902001821002064
:1082A000102100207822002010B5042000F058FE94
:1082B000064B8000C15C1818054A43781170537052
:1082C00083789370C378D37010BDC046802000209F
:1082D0003928002010B5244C217800290CD0072023
:1082E000224B1A78224B50431B185B5C013912B2A7
:1082F00009B2204801F02EFB217804290CD8072070
:108300001A4B1A781A4B50431B185B185B7812B241
:1083100009B2184801F01EFB217800290FD0134B39
:108320001A78032A0BD8072001325043104B12B29F
:108330001B185B5C013909B20E4801F00BFB217878
:1083400004290FD8094B1A78032A0BD807200132C9
:108350005043074B12B21B185B185B7809B20548F3
:1083600001F0F8FA10BDC046902000203D28002002
:108370000F2800207822002070B5324C2078002889
:1083800013D0314B411E1D78304B09B21E782AB2F2
:10839000FF23002E06D1F83B5D432D4B5B191B5C80
:1083A0005B42DBB22B4801F0D5FA2078042813D8C1
:1083B000254B01B21D78254B2AB25E78FF23002E93
:1083C00007D1F83B5D43224B5B191B185B785B427E
:1083D000DBB2204801F0BEFA2578002D16D01A4BEA
:1083E0001878032812D8194B691E9E78013009B2FB
:1083F00002B2FF23002E06D1F83B43431448C018B5
:10840000435D5B42DBB2134801F0A4FA2478042CEC
:1084100016D80D4B1878032812D80C4B0130DD7894
:1084200021B202B2FF23002D07D1F83B5843084B7D
:108430001B181B195B785B42DBB2064801F08AFA15
:1084400070BDC046902000203D2800203928002023
:108450000F28002078220020F8B504000D00431CEE
:1084600043D14E4B1E78002E00D170E007214C4BBB
:10847000771E1A784B4B51435918C95D002904D017
:1084800000204949097881422ED1072151435918CA
:10849000895D002904D0002043494978814223D1D5
:1084A0000132072151435918C95D002904D0002029
:1084B0003D498978814217D107214A439B189B5D2A
:1084C000002B04D00020384BDB7883420CD1FFF71F
:1084D00001FF324A13781C191470314A13785D1960
:1084E0001570FFF749FF0120F8BD01282FD12B4B54
:1084F0001B78042B2BD80720294A5E1C1178294AA7
:1085000048431018805D002804D0274807780020D1
:108510008742E9D10720484302331018C05C002885
:1085200004D02148477800208742DDD1072001315F
:1085300048431018805D002804D01B48867800202E
:108540008642D1D1072041435218D35CB8E70020BE
:10855000012DC9D1124B1A78032AC5D8531C9C4649
:10856000072166460D4B71431F780E4B5918C95DA4
:10857000814203D00C4909788142B5D10721604678
:1085800041437E1C5918895D002904D0002006490A
:1085900049788142A8D1023283E7C046902000206A
:1085A0003D2800200F2800203928002000221149F2
:1085B000F0B507200C001600002301255F1C002ADF
:1085C00005D14343E5543B00062FF7D105E0052BC9
:1085D00008D10B00012523331D7001320131072A18
:1085E000EAD1F0BD4343062A02D1E3189D71EAE7C0
:1085F000CE54E8E70F280020F7B50722234E244980
:10860000337884460193234B1C78234B62431B78B9
:108610008A18D25C002A02D0019A002A2BD10722A4
:10862000601C42438918CA5C7578002A01D0002D6D
:1086300021D107226243164901338A18D25CB778E8
:10864000002A01D0002F16D10722504309180F4CE1
:10865000CB5CE678002B01D0002E0CD16346002BBA
:108660000AD0FFF737FE6B461B792570A370E770C1
:108670006670FFF781FEF7BDFFF72CFE6B461B7996
:108680002770A670E5706370F3E7C04639280020B4
:108690000F2800203D28002090200020F0B58D48B4
:1086A00085B000F067FAFFF781FF8B4F8B493800E8
:1086B0000EF058F88A4903A801F0CEF8322203A937
:1086C000884802F035FA03A80BF09BF902A8FFF7DF
:1086D00063FD854B9842EDD1FFF7E6FDFFF74CFEB9
:1086E00000230193814B1D78002D00D0ACE0322097
:1086F00000F080FE7E4E02A8336801333360FFF73E
:108700004BFDC443A4B222007A4938000EF02AF887
:10871000019BA34230D07849102C06D0202C10D1D8
:1087200001212800FFF798FE744903A801F094F88E
:10873000022203A938000CF061FB03A80BF061F9D9
:108740001AE0802C05D129000120FFF785FE6C4935
:10875000EBE7402C64D16B4903A801F07DF803A935
:10876000022238000CF04AFB03A80BF04AF9012062
:1087700029004042FFF770FE3368142B4ED10121CF
:108780000020FFF769FE002842D15F4D5F4A30604C
:108790005F4B287811781B785E4A002803D1073098
:1087A00058431018405C07265E43921950546D7868
:1087B000481C002D00D1155C07265E43554A013345
:1087C00096193554504DAE78002E03D107255D43E0
:1087D00055196E5C07255D4355196E544A49C97891
:1087E000002900D1295C07256B43D2181154FFF7EB
:1087F000FDFC474B002802D11A78002A20D0032123
:10880000424A117000221A70FFF74EFDFFF7B4FDC7
:10881000374B1A68142A01D100221A60019461E7CB
:1088200080235B009C4204D10120FFF7E5FE3A491A
:108830007BE7012CA0D12800FFF7DEFE374974E763
:1088400001222A4B1A70E3E726480BF084FF3449D3
:1088500003A801F001F8022203A938000CF0CEFAB7
:1088600003A80BF0CEF8214D2C78002C22D02D49F6
:1088700003A800F0F1FF1B4C322203A9200002F0F4
:1088800057F903A80BF0BDF8274B03A819680BF0A4
:10889000D5F8322203A9200002F04AF903A80BF010
:1088A000B0F802A8FFF778FC0F4B9842DBD1002309
:1088B0002B70D8E71C4B1C60FFF778FE0322134B8C
:1088C0001A70134B1C70FFF7EFFCFFF755FD019C6E
:1088D000A4E7C04614210020182100206A79020074
:1088E0007479020004220020F7FF00000E28002007
:1088F000DC2000207B790200867902008A79020060
:1089000090790200977902003928002090200020F9
:108910003D2800200F2800209D790200A079020048
:10892000A3790200AF7902001021002070B5184E23
:108930000F2303220721300002F0A4FB154C164D33
:108940002200290030000EF068F9144E0F23022295
:108950000821300002F096FB2200290030000EF0C2
:108960005CF90F4E0F2330000122092102F08AFB2F
:108970002200290030000EF050F90A4D280000F0C6
:1089800041F82800220008490EF047F970BDC046A2
:10899000F020002000200020D5350200E02000203B
:1089A0000021002014210020AD890100CA23144AAF
:1089B0009B0010B5C2501C330400C0180BF021F806
:1089C000D0239B00E0180BF01CF820009130FF3002
:1089D00001F044FB20006930FF3001F03FFB200034
:1089E000F03001F0C1FE2000D03002F035FA200056
:1089F000643007F021FE201DFFF7C2FB200010BDF0
:108A0000707302001423F0B5040093B00093192290
:108A10001821043002F0C8FC220025002600643230
:108A2000B435132110001092B83607F011FE28005B
:108A30000CF02CFA00221E2130000BF091FE2000D9
:108A4000D03002F029FA2200F03211920621464A73
:108A5000119801F0ADFE20000027012369301A00B3
:108A600000971121FF3001F005FB200091300097A5
:108A7000012302221A21FF3001F0FCFA2000B93054
:108A80001A2301210222FF3002F0C4FA300001F063
:108A9000FDF8E4225200A050300001F047FBE6232D
:108AA0005B00E0500100E42220005200D130119B15
:108AB000A2580095FF3001F08BFD2000E130290025
:108AC0001C22FF3002F0F0FE192320000F93013B1F
:108AD0000E93013B0D93013B0C93013B0B93013B28
:108AE0000A93013B0993013B0893013B0793013B28
:108AF0000693013B0593013B0493013B0393013B28
:108B00000293013B0193F930013B082200930721B6
:108B1000013BFF300BF045FECA239B00E018290003
:108B200003F0D8FED3239B00E0181D2102F078FB50
:108B3000DD239B00E7501098277003210DF037FDCF
:108B400023002200200009499C33A0321C601160E0
:108B50005760074A80305A610221012208F062FA08
:108B6000200013B0F0BDC046EC6E02000B360200D0
:108B7000F53502000123F0B506788FB004001E40E1
:108B800000D082E00300D0331800039300F014FB00
:108B900000F00CFA28200EF053F8050010300AF00F
:108BA000C1FF6C4B18202B600EF04AF807006A4B8F
:108BB0000460082231000C300C930D960EF08FF8F3
:108BC0000CA9381D08220EF06EF8644BAF607B6173
:108BD0001223EE60AB802E626E622900039802F0D1
:108BE000CFF8002805D028000AF0C1FE28000EF0BA
:108BF0001FF8012322785A49134323702300B4330A
:108C0000180005930CF048F95649049005980CF0AB
:108C100043F900250690642000F0ECFB2F002E00A5
:108C200023006933FF33180007930BF08DF90028F8
:108C30002DD1049B002B33D1069B002B30D1DD2599
:108C400049494A48AD0000F0B5FC6359002B1CD1DE
:108C500000F09AF801000AA800F0FEFD0BA80AF047
:108C600047FDCA239B00E018069B0BAA0AA90093A4
:108C7000039B03F085FE0BA80AF0C3FE0AA80AF0C6
:108C8000C0FECC239B00E35863510FB0F0BD200021
:108C90009130FF300BF058F90028CAD0182EC8DCEC
:108CA0002000653039B22AB2FF23FF30013700F0CF
:108CB00051FEFFB2322000F09DFB0136052F02D19C
:108CC00000270135EDB2049B192E06D0002BA7D04A
:108CD0002349059802F07CFD01E0002BF8D10498AF
:108CE0000DF0A6FF06980DF0A3FF1F491F4800F0E6
:108CF00061FCCA239B00E3180893DD239B00E35823
:108D00000993002B1ED100F03FF801000AA800F0E3
:108D1000A3FD0BA80AF0ECFC01230BAA0AA90093FF
:108D20000898039B03F02CFE0BA80AF06AFE0AA821
:108D30000AF067FECC239B00E3580993DD23099AD0
:108D40009B00E2502100079AF031089804F012F8D5
:108D500066E7C046FD0300007D3602003D36020096
:108D6000F7790200027A020000200020001C002097
:108D7000BFF34F8F024B034ADA60BFF34F8FFEE71A
:108D800000ED00E00400FA05F0B58DB005AF192242
:108D9000154938000DF087FF0022144B05245A7145
:108DA00080225205566E01222500019402920393FF
:108DB0000199300008F028FB0800029908F09EFA9B
:108DC000019B03996B430193029B361A6B430293F9
:108DD000631E2C1B6C433C19225C1C1ECA54E7D139
:108DE00008000DB0F0BDC046127A02003E280020F7
:108DF000F0B597B018220021060010A80DF06FFF03
:108E0000132110A80DF058FD032110A80DF023FE2A
:108E10004C4B1B68002B00D10133DBB202934A4A52
:108E2000012300210BA808F037F8484B9E4200D9D7
:108E3000002672B6464B64211D68464B30000793EE
:108E4000052408F0E5FA60435030281808900A21FC
:108E5000300008F0DDFA0A2108F0C0FB6143503110
:108E60006918099130000A2108F0B8FB802361439A
:108E70000024503169189B010A910193029B002B39
:108E80005DD0002500272E1F07AB9B190593032CEF
:108E900003D1802300249B01019307AB5B592E4A29
:108EA00003936300D318049300231900062058434A
:108EB000049A16187678B4466246039EB25C102671
:108EC0009446049A105C62460641164202D0012084
:108ED000984001430133092BE8D1C9431F4B059A40
:108EE000090119401268039B934225D1312F23DCDD
:108EF00000210BA80DF070FEFA23159A1199DB00E2
:108F0000106801421BD0013B002BF9D1019B0134B9
:108F10005B000193FA230137E4B25B009F42B6D1B4
:108F20000435102DAED1074B1B68002BA6D0029F35
:108F3000013FFBB20293A1E7019B1943D9E7FFF779
:108F400017FFC04690240020F0FF0000E703000058
:108F500004200020617A02002B7A0200F01F00003A
:108F6000F0B500281BDD0F4C421E276811000020C1
:108F7000BE09FB0F73407B403E097D087340BF086C
:108F80007B406B40DB072B4301251F0040002B403B
:108F90001843E940ECD18242E8D32760F0BD024893
:108FA000FCE7C0468C24002017FCFFFFF8B5002327
:108FB000124C23600AF0BDFB002808D004212000D9
:108FC0000AF0B3FB002801D00D4B2360F8BD01224D
:108FD000A12704250B4B0C491A602268FF0048604A
:108FE0004E68002EFCD0DE591202013D3243002DA6
:108FF000F5D1226001225A60E8E7C0468C240020A7
:10900000ED5EBC0B00D00040FCD00040F0B585B058
:109010001F000AAB1B880600029115000393002F66
:109020001BD028200DF00CFE6B4604001989039B11
:10903000AAB200933B000AF083FC336821005B680E
:1090400030009847002806D020000AF090FC20004D
:109050000DF0EEFD024805B0F0BD0248FBE7C0464A
:1090600016FCFFFF17FCFFFF0B4B70B51C68002CB4
:1090700010D0656D00F0ACFBA36C002901D18342D8
:1090800006D820000AF088FB044920000AF072FB91
:109090002C00ECE770BDC04698240020B8240020C6
:1090A000F0B593B007932A4B04AC1E680490059169
:1090B0000692002E4AD0274B258867881C6800231B
:1090C0000293002C2ED0636D23480393A36C9AB2B5
:1090D000A36C1B0C99B2854214D12048824211D155
:1090E000002B01D0B9420BD1029B002B08D12000EC
:1090F0000AF052FB1A4920000AF03CFB01230293BC
:10910000039CDEE7002A01D09542F9D1002B01D063
:10911000B942F5D120000AF03FFB114920000AF0C6
:1091200029FBEDE70F4BEB18012B0FD910233A0069
:10913000009329000C4B08A80AF002FC336808A928
:109140009B683000984708A80AF011FC13B0F0BDE6
:1091500094240020C4240020FE030000FF0300002C
:10916000B824002002FCFFFFA190010010B572B6E8
:109170000B4B1C68002C08D020000AF00DFB0023CC
:10918000E364084B2000E36310BD62B65C200DF081
:1091900057FD5C22002104000DF0A1FDEFE7C04661
:1091A000BC24002000400020024B18780123184006
:1091B0007047C04644280020F7B50600FFF7F4FFCB
:1091C000051E33D11A4C2660FFF7D0FF194B1A4900
:1091D00018600AF0CFFAFFF7C9FF184B1860184B58
:1091E0004363184B8363206800280ED0C027164EB7
:1091F0002A00330015490097FFF708FF0097330056
:109200002A0013492068FFF701FF0C200DF018FD1C
:109210000023838083710F4B03600F4B836000F04A
:10922000EFFA01230D4A11780B431370F7BDC046C6
:1092300094240020C8240020B8240020C02400204A
:10924000FC3F00205F380200A1900100FF030000F6
:10925000FE0300000C6F020069900100442800200A
:10926000F7B506000D0017000193002802D1002475
:109270002000FEBD0029FAD0FFF778FF041EF6D0CB
:10928000074B019A4363066045608760054B002ADF
:1092900000D0054BA363054920000AF06BFAE7E70D
:1092A000FC3F00202938020047380200B824002083
:1092B000024B1868434258417047C046B82400200A
:1092C000002310B504499C006258002A01D00133E4
:1092D000F9E76050100010BDA0240020002310B555
:1092E000044A99008C58844201D00133F9E70020E8
:1092F000885010BDA024002010B50024084BA20007
:10930000D058002802D003685B6898470134062CC7
:10931000F4D1044B1B68002B00D120BF10BDC04608
:10932000A0240020B8240020F8B5FFF73DFF002856
:109330001CD02A4D2C68E36CDA0718D502273B4372
:10934000E364274B1E680423F26C30001343F3647C
:10935000636BF3630AF046FA3000716C04F0FFF8B7
:109360002868C36C3B4201D004F033F9F8BD1D4FAF
:109370001D4E3A683168002A1ED129602A68914240
:1093800008D11B0706D52C60FFF7B6FF3B68002B02
:10939000FAD02B6029688C42E8D03368994214D106
:1093A000124B4B63124B8B6320000AF01BFA2968A7
:1093B000626C4B6C20000DE0206DB84203D1606DF3
:1093C000002800D002002A60D8E79C42ECD100229D
:1093D00010004B6C04F082F8C8E7C046C824002097
:1093E0009C240020B8240020C0240020FC3F002042
:1093F0005F38020070B50500FFF7D6FE002803D1E4
:1094000028000DF01CFB70BD0C4B1C68E36CDB07E7
:1094100006D5FFF7ABFE0A4B1860002800D0040009
:1094200000F0D6F92D18A56420000AF0B5F9054919
:1094300020000AF09FF9FFF777FFE4E7C824002037
:109440009C24002098240020F0B51E4B1E4F1C6861
:109450003B6885B006000391002B30D0FFF7A4FED7
:1094600000282CD0E36CDB070ED5FFF77FFE174BEF
:10947000051E186008D00AF08FF9154928000AF077
:1094800079F92C00FFF750FF039B20001B043343A6
:10949000A3640AF081F920000E490AF06BF90E4B23
:1094A0000024F318012B07D9C0230093039A0B4B18
:1094B00031003868FFF7AAFD200005B0F0BD084C68
:1094C000FAE7C046C8240020942400209C240020F1
:1094D000B8240020C424002002FCFFFFA19001005A
:1094E00016FCFFFF10B5FFF75FFE002809D0054C02
:1094F00020680AF051F9044920680AF03BF9FFF7A7
:1095000013FF10BDC8240020BC240020F7B50700BD
:109510000D0000282ED0FFF747FE00282CD007248E
:10952000164E3068C36C1C4007D0154A290038001D
:109530000AF049F900242000FEBD04F032F80221AF
:109540003268D36C1940019103D003218B43D3645B
:10955000F1E701242343D3642800B8473268D36C71
:109560001900A143D164019C5B07E4D528000AF0EF
:1095700062F9E0E7034CDEE7034CDCE7C824002097
:109580003738020017FCFFFF16FCFFFF020010B582
:10959000014B12CB12C210BDCC240020034B1A6821
:1095A000034B1A607E225A607047C0460420002098
:1095B000CC24002070B5114E3278022A1AD0814294
:1095C0001AD90C1A072C17D90D00032305432B4079
:1095D00012D172B60A4DD2005051AA1851608022A1
:1095E000A40812061443046032780132327062B665
:1095F000180070BD0348FCE70348FAE7462800203E
:10960000D424002013FCFFFF17FCFFFF70B5134CA0
:1096100006002378124D002B0CD1124912482B70F2
:10962000FFF7C8FF114B984202D11E20FFF7E0FB65
:109630000123237000242B78A34209DD0C49E300A9
:10964000C91830000AF011F9002805D10134F2E7F9
:109650001420FFF7CDFB002070BDC0464528002038
:1096600046280020003800201029002017FCFFFFAA
:10967000D424002070B5002819D0104B10491C7854
:1096800000239C4216DDDA005558854210D28A1814
:10969000526882420CD9041F2368002B02DC1E2072
:1096A000FFF7A6FB802322681B061343236070BDCF
:1096B0000133E6E71E20FFF79BFBF8E74628002072
:1096C000D424002070B5051E14DD0B4E0B4C3368FE
:1096D000002B02D020680CF0E7FFFA21206800245C
:1096E000074B89008361C462694335600CF0E4FF75
:1096F000200070BD0348FCE7E4240020142500206E
:10970000AD97010017FCFFFFF8B5114F06003D684B
:10971000002D0AD130200DF093FA040006F0BCFFB2
:109720000C4BA5612360E5623C600B4D2B68002B60
:1097300009D110200DF084FA04000CF07EFF200007
:109740002C600CF054FF3000FFF7BCFFF8BDC046A2
:10975000142500200C77020010250020014B18680A
:109760007047C046E424002070B50D4C2368002BE0
:1097700003D00C4B1B68002B02D10620FFF7C4FF5F
:1097800020680CF04BFF02000749C3170D684E68B4
:109790005219734120680A604B600CF045FF70BDA0
:1097A0001025002014250020B820002010B5FFF758
:1097B000DBFF0024054BA200D058002802D003682C
:1097C0001B68984701340A2CF4D110BDE82400200E
:1097D00010B5FFF7C9FFFA22034B920018685968C9
:1097E000002307F03BFF10BDB820002010B5FFF7A5
:1097F000BBFF024B1868596810BDC046B820002056
:109800000B4B10B51B680400002B03D0094B1B68E1
:10981000002B02D10620FFF777FF0023064A9900AC
:109820008858002801D00133F9E78C5010BDC0469C
:109830001025002014250020E8240020002310B566
:10984000044A99008C58844201D00133F9E7002082
:10985000885010BDE824002010B50400002902D073
:109860000B78002B03D1034B2360200010BD0AF0BE
:10987000CFF8FAE71C6F0200F8B504000E001500DF
:1098800000290AD00B78002B07D0002A05D0080049
:1098900097B20DF064FA874203D90B4B2360200086
:1098A000F8BD681DFFF7B2FE20600AF055FA236884
:1098B0002A005F8023683100181D0DF0F4F9236839
:1098C0005D1900232B71EAE71C6F0200014B036056
:1098D0007047C0461C6F020010B50548054C20605B
:1098E0000AF03DFA044A054920000DF096F910BD32
:1098F0001C6F02001825002000200020033A0200FF
:10990000084B73B51C680500002C0AD001002668BE
:109910000831082268460DF0C6F90CCD31682000E8
:10992000884773BD1C250020014B03607047C0466B
:10993000246F020010B50400002903D1044B03601A
:10994000200010BD016008000AF009FAF8E7C046DF
:10995000246F020030B500684488A1420CDA858883
:10996000AA4209DA002907DB002A05DB5443401824
:1099700000198371002030BD0048FCE717FCFFFF91
:10998000F0B5070085B00E001D00002921DD002A7A
:109990001FDD002B1DD00468638803938B4200DD1C
:1099A0000391A3880293934200DD029200230634C0
:1099B0000193019B029A93420EDA29002000039A38
:1099C0000DF071F93B68AD195B88E418019B013318
:1099D000EEE7024805B0F0BD0020FBE717FCFFFFF3
:1099E000F8B504000D0016001F00002901DB002A55
:1099F00002DA0E4B2360F8BD100048430630FFF733
:109A000005FE20600AF0A8F923685D8023689E8027
:109A1000002F06D03B00320029002000FFF7B0FFE6
:109A2000E9E720000AF0CFF8E5E7C046246F02001E
:109A3000F7B506000D1E03D1244B03603000FEBDB8
:109A400000200F000400010001903B78002B1AD089
:109A50003022524294469C446246092A11D90A2B6C
:109A60000AD1019B241801330193A14200DA21009D
:109A7000002004000137E8E70028FBD00134002073
:109A8000F8E70120F6E76A460127928809B212B288
:109A900030007F42FFF7A4FF39000A2033689A1D87
:109AA0002C78002CCAD02300303B092B08D8FB436C
:109AB000DB173B4043431B19303B1F000135EFE7E9
:109AC000002FFBDB177001320F00F7E7246F020055
:109AD000F0B5040089B006A80E0002921D00FFF741
:109AE00055FD236802995A88914235DA9B889D4238
:109AF00032DA1F2E30D9079B01939E422CDC0523BE
:109B0000002273430393069B0493039B04999B18C1
:109B1000A03BCB5C00210593AE18029BCF182368B5
:109B20005888019087420EDA9888B0420BDDDB1925
:109B300010270F41019870431B1805980740781EA5
:109B400087417F429F7101310529E6D10132052A03
:109B5000DBD1002009B0F0BD0048FBE717FCFFFF98
:109B6000F7B50468070063880E1E01931EDD994255
:109B700018DA0023063400933B68009A9B889A42C7
:109B800012DA019BA1199D1B2A0020000DF08BF811
:109B90006019310009F0FAFF3B685B88E418009B0C
:109BA0000133E8E70AF00FF8002000E00048FEBDAE
:109BB00017FCFFFF10B50548054C20600AF0CFF8F0
:109BC000044A054920000DF028F810BD246F02005A
:109BD00020250020002000207F3B020010B5054C0E
:109BE000012120000AF0AFF8034A044920000DF0DB
:109BF00014F810BD2425002000200020033D0200A1
:109C00000388074A10B50120934208D0834202D04E
:109C10000020DB0703D41E20FFF7EAF8002010BD68
:109C2000FFFF00000048704716FCFFFF10B5322010
:109C3000FFF7DEF8004810BD16FCFFFF10B5124C10
:109C4000002308348280046041620224142201004F
:109C50008371847203638386028136310A78C3601C
:109C6000A243F1342240036143618361C361036213
:109C70000A70020040321370021DD38701334387FC
:109C80008387C38710BDC046446F0200F0B5544FB0
:109C900097B03B6806000593002B00D08BE006AC24
:109CA0000B331C222121200001F0ECF90EAD0B2317
:109CB0001D2222210AA801F0E5F90B231B222321F2
:109CC000280001F0DFF908200CF0BAFF0122059B03
:109CD000110004900BF00BFC3A2130000BF061F9FD
:109CE00000281DD0A38812ADAB80A3795C20AB7196
:109CF0003C4B1293A3681493237B2B73637B6B738E
:109D0000A37BAB730CF09CFF0423019336330093C9
:109D10002A00049B3100040002F0CAF83C604AE0CB
:109D2000322130000BF06BF900281CD0A38812AD53
:109D3000AB80A3795C20AB712A4B1293A368149378
:109D4000237B2B73637B6B73A37BAB730CF078FF6C
:109D5000042301932E3300932A00049B3100040056
:109D600002F044FADAE73C2130000BF003F9002856
:109D70002CD0AB8812ACA380AB79A420A371194B73
:109D80001293AB6814932B7B23736B7B6373AB7B56
:109D9000A3730CF055FF052305000293013B0193CB
:109DA000383300932200049B310001F09FFF0E4BDB
:109DB0003D6044351D600C4B094C1868002802D0EA
:109DC00021680AF02FF9206817B0F0BD44200CF08C
:109DD00037FF042204990400FFF730FF9EE7C046D6
:109DE00028250020346F02002C250020F0B56149A1
:109DF000C56885B08D4254DA0300022236331B78E1
:109E0000134059D104698C4264DA02003632127868
:109E1000520768D4426901920200019E40328E428C
:109E20006FDA010036310978090774D4002B7DD12F
:109E300013780293002B16D006000127011DCB8F4B
:109E4000363601339BB2CB8703963678BC46374013
:109E500000D188E01D2B06D963469E43039B1E70EC
:109E60000023CB87137009F0BDFF434A07239042BC
:109E700076D94249043B8D4272DBC82201339200FD
:109E800095426DDC023B8C426ADB013B944267DC0D
:109E900001980433884263DB0133904260DC002385
:109EA0005EE0C822002352009542ABDD030036334A
:109EB0001A7800239207A5D4012306001F00363626
:109EC00032785408A7433C0002279C40BA432243FF
:109ED000327097E7C822520094429BDD020036326E
:109EE0001278520796D406000122363633789F083E
:109EF000BA439700042293431A003A433270012375
:109F000088E7C821019E49008E428FDD010036316D
:109F1000097809078AD40100012636310B78DF0859
:109F2000BE430827F600BB4333430B701378032B63
:109F300000D97DE70133DBB21370012B03D100217F
:109F4000031DD98774E7042B00D071E70200363275
:109F50001178033B0B43137000230430C3870B338A
:109F6000180005B0F0BD092B00D87CE7029BCF8715
:109F7000013B77E770FEFFFFFF700200E0FCFFFF90
:109F800070B5C369C1681A68451D8AB00400EB7FCB
:109F9000114255D0002B58D1EB7F082B0DD901224F
:109FA000A379134209D11343A371A188130006A812
:109FB00009F0C2FDFFF70CFC2062EB7F012B23D8D8
:109FC0000123A2791A421FD00025A188A57102227F
:109FD00002A809F0B1FDA31DDE7F012E14D1FFF709
:109FE000F7FB2B00226A801A994100900191019B96
:109FF000A188AB4203D1174B009A9A4227D901237B
:10A00000042206A809F098FD0322A3791340012B2E
:10A0100014D1FFF7DDFB0023226A801A994199428F
:10A0200002D10D4B984209D90223A279A18813438A
:10A03000A3710522012306A809F07EFD0AB070BDB8
:10A040000B2BA9D80133EB77A6E7013BFBE73300E5
:10A050000322D6E7E7030000DB05000010B504008B
:10A06000034B08330360FFF7E9FB200010BDC04637
:10A07000786F0200F0B5070000250E0085B002934E
:10A080000AAB1B7808370393104B040008330360B6
:10A090000192858085712900182238000CF01FFE7E
:10A0A000039A310038000CF00CFC6B466A469B8822
:10A0B000127AA380A31DE671DA77631D2562200062
:10A0C000DD77FFF79DFB200005B0F0BD786F020043
:10A0D0000048704716FCFFFF10B53320FEF788FEDE
:10A0E000004810BD16FCFFFF002310B5040083805C
:10A0F00083710D482164083020608020C000A06179
:10A10000E0612062E3602000236163616362A36217
:10A11000E36223636363A363E3636364110009F091
:10A1200059FF200010BDC046906F0200F0B5534F9C
:10A1300097B03B6806000593002B00D08BE00B33F3
:10A140001C22212106A80AAC00F09CFF0EAD0B23B7
:10A150001D222221200000F095FF0B231B2223212A
:10A16000280000F08FFF08200CF06AFD0122059BFB
:10A17000110004900BF0BBF91D2130000AF028FFFC
:10A1800000281DD0A38812ADAB80A3796020AB71ED
:10A190003B4B1293A3681493237B2B73637B6B73EA
:10A1A000A37BAB730CF04CFD052301931833009394
:10A1B0002A00049B3100040001F04EFF3C604AE09D
:10A1C0003C2130000AF032FF00281CD0A38812ADD9
:10A1D000AB80A3796020AB71294B1293A3681493D1
:10A1E000237B2B73637B6B73A37BAB730CF028FD1A
:10A1F00005230193373300932A00049B31000400A8
:10A2000002F096F8DAE73C2130000AF0B3FE0028AD
:10A210002AD0AB8812ACA380AB79A420A371184BD1
:10A220001293AB6814932B7B23736B7B6373AB7BB1
:10A23000A3730CF005FD052305000293013B019378
:10A24000383300932200049B310001F04FFD0D4B89
:10A250001D6044353D600B4B084A1B681068002B9D
:10A2600000D0436417B0F0BD48200CF0E9FC052293
:10A2700004990400FFF738FFA0E7C0462C25002012
:10A28000346F02002825002082B0F0B50400EDB044
:10A290006420739372920CF0D2FB052210A8110077
:10A2A00009F09AFC974911A8FFF7C2FB002221ABE5
:10A2B0006CA91A605A609A600C339942F9D119223C
:10A2C000002113A80CF00BFDA0680AF042FA00264A
:10A2D0000B90FF21A06800F0B9FC8B4FA06800F044
:10A2E0005FFB07960996884B9F4203D0874B9F429E
:10A2F00000DBFDE0A0680AF02EFAA56884491AA8E0
:10A30000FFF7AAFA78221AA9280000F0E7FB1AA89A
:10A3100009F077FB00267C4F0322099B606801331C
:10A320001A40099209F0F6FD0500606809F0F9FD90
:10A330000022784B05929D4210DB013205922A00E3
:10A34000C8320BDBAA22042192000591954205DC5C
:10A3500002220592C82D01DD0132059200220692EB
:10A36000984210DB012306930300C8330BDBAA23BA
:10A3700004329B000692984205DC02230693C8280B
:10A3800001DD0133069310A809F01DFC002513AB75
:10A39000EB5C012B08D160496B00CA185278C95C8C
:10A3A00010A8FF23FFF7D6FA0135192DEFD16B4620
:10A3B00018229A5E6B4610A81421595E099BFFF77C
:10A3C000C9FA002F01DB0F2E07D90023A0680093E4
:10A3D00074301A0010A909F00CFC01230893089BA3
:10A3E00005995A004C4B9B189A1E12788A4226D126
:10A3F000013B1B78069A934221D1089A6CAB9B18BB
:10A40000663BFF3B0A931B78012B18D00C23079A5D
:10A41000216853431D0000220CA809F005FE21AA63
:10A420002B0094460CAA634423CA23C301220A9B2F
:10A4300001361A70079BF6B20133DBB20793089B13
:10A44000013308931A2BCAD164200CF0F8FA079B49
:10A45000643F3FB2182B00D845E71A0021A91AA87B
:10A4600009F0F0FF6A461DAB23CB23C21B681360C3
:10A470001A991B9A1C9B206809F0BEFDE568002D07
:10A480000CD0264912A8FFF7E7F91C231AAA12A933
:10A4900028000AF03AFD12A809F0B3FAA0680AF001
:10A4A0005AF911A912A8A56809F076FB00221C4BE5
:10A4B000009212A901932800130000F0B3FA12A829
:10A4C00009F05DFBFA2080000CF0B9FAA0680AF0F0
:10A4D00042F90B99A06800F0B9FB11A809F04FFBF5
:10A4E00010A809F04CFB6DB0F0BC08BC02B01847D6
:10A4F000002F02D00F2E00D00EE7A06800F050FA17
:10A500000AE7C046417C02008C3C0000D18AFFFF74
:10A51000867C020058FDFFFFA67C02009B7C0200A7
:10A52000DC050000F0B587B001930EAB1B88060078
:10A5300003930D9B0D000093019B02920C9F002B37
:10A540003DD0002F02D1009BDB0738D528200CF02E
:10A5500077FB0400103009F0E5FA6B461B891820E0
:10A56000258063800CF06CFB0500009B082205939E
:10A57000019B002103600C3004970CF0B0FB082213
:10A5800004A9281D0CF08FFB0E4B02226B610023E7
:10A590000399E3602362636233680A43A560A28083
:10A5A0005B68210030009847002806D0200009F0A1
:10A5B000DEF920000CF03CFB034807B0F0BD034877
:10A5C000FBE7C0466940020016FCFFFF17FCFFFFD7
:10A5D00070B58CB08360109B01604260C360040062
:10A5E000184918000AF058FC051E14D001001C225E
:10A5F000103105A80CF057FB6A4608AB43CB43C2A9
:10A600001B68136020680599069A079B09F0F4FC03
:10A6100028000CF00DFB0C4B186800280ED00B4ADC
:10A6200005AB059200220692C03202926A4622CB06
:10A6300022C2230003220521FFF774FF20000CB083
:10A6400070BDC0469B7C02001C25002089A2010031
:10A65000F0B5040085B0637A9C46002B04D120003D
:10A6600009F00EFF05B0F0BDA37A266F0193102309
:10A67000019AF35600259B1801229A402900F3689D
:10A6800003920293029BAB4231DDB368019A6B43A4
:10A690009B1872695B00E77AD3181A785878E379C7
:10A6A000012F14D15F1E3F1A10003A005B00434394
:10A6B000606F8218D3189B79634500DD6346627B27
:10A6C0001A4202D00123AB4019430135DAE7022FC9
:10A6D00005D15F1EBA1A277A013F381AE6E7032F21
:10A6E000E4D1277A013FBF1A02003800DEE71123C8
:10A6F000C943F356606C994023691940039B194381
:10A700000CF06AFAA27B072AACD8637B0C495B0089
:10A710006373531CDBB290004158A373022A03D821
:10A7200008000CF081F996E7064B20002363002314
:10A730006363054BE462236414300BF0BDFF91E7C3
:10A74000BC6F020051A601006B44020010B504006A
:10A75000044B03600BF0A8FF200005F0B3FF2000BE
:10A7600010BDC0460C77020010B504000E4B083334
:10A770000360FFF763F82000743009F000FA20004E
:10A78000603009F0FCF92000583009F03AF9200057
:10A79000503009F036F92000044B14306361FFF7A4
:10A7A000D5FF200010BDC046DC6F020040770200DC
:10A7B000F8B500250400324B8580083303608571AD
:10A7C000143016000F0005F067FF20002D4BE562E6
:10A7D000636125645030FFF779F820005830FFF7A7
:10A7E00075F820006030FFF79FF820000423F25E28
:10A7F00033682667590009B2743009F0EDF93368FF
:10A80000226FE37173680126237210236581A7808C
:10A810002561D35691685918994204DD300098405B
:10A8200001330543F8E711230120D356D1685918A5
:10A83000994206DD02009A402669013332432261C3
:10A84000F6E714200CF0FCF9226900212A430123C9
:10A85000060006F021FBFF23220063720133A3816F
:10A86000002348326664A37320001370A366FEF7CA
:10A87000C7FF0123A27920001343A371F8BDC0468E
:10A88000DC6F020040770200F0B5437A85B0040027
:10A89000002B04D1200009F0F3FD05B0F0BD01222A
:10A8A000837A11009C461023066F0025F35603920D
:10A8B0006344994002912900F3680193019BAB42E4
:10A8C0002CDDB36872696B4363445B00E77AD3188D
:10A8D0001A785878E379012F10D15F1E3F1A1000C3
:10A8E0003A005B004343606F8218D3189B79002BBA
:10A8F00002D0039BAB4019430135DFE7022F05D19E
:10A900005F1EBA1A277A013F381AEAE7032FE8D107
:10A91000277A013FBF1A02003800E2E71123C9433A
:10A92000F356606C994023691940029B19430CF05F
:10A9300053F9667AB31EDBB2FC2B14D8FEF70EFF78
:10A940000B4B0500236300230A4863630A4BFF2176
:10A95000E4622364704306F05BFD2900414320005C
:10A9600014300BF0A9FE637A012B00D995E791E72B
:10A9700081440200B60300006B4402001FB50123AE
:10A9800081881A00684609F0D7F8012303491A00A4
:10A99000684609F0D1F805B000BDC046FE030000CE
:10A9A0001FB5030048331A780400002A0DD0002296
:10A9B0001A70012381881A00684609F0BDF8012346
:10A9C00004491A00684609F0B7F82000743009F00D
:10A9D000FAF81FBDFF03000010B548300378002BC4
:10A9E00006D00378012B03D00121024808F013FFA1
:10A9F00010BDC046FF03000010B501210400062071
:10AA000008F009FF064B984208D148342378002B00
:10AA100004D02378012B01D020BFF7E710BDC0463A
:10AA200016FCFFFF73B5079C0500002C1CDB06001D
:10AA300048363078002802D03078012816D10698A0
:10AA40001BB2C0B20090280012B2743009F0D1F8E5
:10AA5000002C07D02B004A331C80002407234C35E0
:10AA60002C803370200076BD014CFBE7014CF9E7E8
:10AA700017FCFFFF12FCFFFFF0B587B00D9C06002E
:10AA80000F0002920393002C20DBFFF7A5FF330099
:10AA900048331D78EDB2002D1AD1390005A809F010
:10AAA0007BF80C9B01940093029A039B05A930004C
:10AAB000FFF7B8FF05A809F062F8002C03D03000BA
:10AAC000FFF79AFF2C00200007B0F0BD014CFAE719
:10AAD000014CF8E717FCFFFF11FCFFFFF8B504007D
:10AAE000171E1DDD060048363378002B02D0337860
:10AAF000012B17D12200E3795632013B137023005A
:10AB00000025200054331D80503008F0D9FF230069
:10AB10004A331F80022328004C3425803370F8BD4F
:10AB20000148FCE70148FAE717FCFFFF12FCFFFFB2
:10AB3000F7B505000F00161E18DDFFF74DFF2B00BF
:10AB400048331C78E4B2002C12D1390001A808F077
:10AB5000AFFF320001A92800FFF7C0FF01A808F0ED
:10AB600050FF2800FFF748FF2000FEBD0148FCE72A
:10AB70000148FAE717FCFFFF11FCFFFFF8B50400DE
:10AB8000171E2DDD060048363278002A02D03278B2
:10AB9000012A27D15D42069BFF331FD16B1D220086
:10ABA0001BB2643213802300200066331D706030B6
:10ABB00008F0FAFF230000226C331A70954200D08F
:10ABC0003D0023004A331D80079B00205A1E9341FD
:10ABD000013F4C34053327803370F8BD069BDEE718
:10ABE0000148FAE70148F8E717FCFFFF12FCFFFFF6
:10ABF000F0B587B005000F00161E03931EDDFFF7AA
:10AC0000EBFE2B0048331C78E4B2002C18D139003D
:10AC100005A808F0C1FF0D9B320001930C9B05A90C
:10AC200000932800039BFFF7A9FF05A808F0A7FFE2
:10AC30002800FFF7E1FE200007B0F0BD0148FBE768
:10AC40000148F9E717FCFFFF11FCFFFFFF2902D8BD
:10AC50004172002070470148FCE7C04617FCFFFF27
:10AC600013B5040004A80078009020000BF04AFD02
:10AC7000002801D1207516BD0048FCE70EFCFFFF3F
:10AC800013B5040004A80078009020000BF022FD0A
:10AC9000002801D1207516BD0048FCE70EFCFFFF1F
:10ACA0007FB50D0011000F226A4404001E1E1170B2
:10ACB00016D0089B002B13DD012329000093FFF71A
:10ACC000DFFF002802D0074804B070BD0090089B49
:10ACD000320029002000FFF7C3FF0028F4D0F2E77C
:10ACE0000148F1E70EFCFFFF17FCFFFFF7B5070077
:10ACF0000D1E3FD00023022604690193002C35D09D
:10AD0000AA88A3885340334204D1324204D1AB888D
:10AD1000334226D0646AF1E7A968A0680AF0CCFB48
:10AD20000028F4D02B88002B02D022889A42F1D13F
:10AD30006B88002B02D062889A42EBD1EB68E26804
:10AD4000934201D0002BE5D17B68002B01D020007D
:10AD50009847A288084B1343A380019B01330193BA
:10AD6000D8E7A368AA689342D4D1DBE7019B20000F
:10AD7000002B00DC0148FEBD0080FFFF17FCFFFF39
:10AD8000F0B5060085B00D1E5DD001270469002CCA
:10AD900026D00221AA8800230A4202D0A3885B0899
:10ADA0003B40226829688A4214D1A068A968002B18
:10ADB0000ED00AF081FB00280CD0EB68E2689342C9
:10ADC00008D1A3881AB2002A06DB204805B0F0BDDE
:10ADD0008842F2D0646ADAE75B045B0CA380F4E794
:10ADE00030692A88002807D135610123184968464F
:10ADF00008F0A2FE0020E9E7010003001C8894424D
:10AE000006D25C6A1900002C0DD02300F6E723005F
:10AE10001C88944207D15F886C88A74203D85C6A7B
:10AE20001900002CF3D1884209D10B889A4204D32F
:10AE300005D148886B88984201D96962D4E74B6A8A
:10AE40006B624D62D1E70348C0E7C04616FCFFFFC6
:10AE5000FD03000017FCFFFF064B10B51A000400AD
:10AE600008322C33026083600830FEF737FA200086
:10AE700010BDC046F46F020008B4024B9C4608386F
:10AE800008BC604759AE010008B4024B9C46083824
:10AE900008BC6047C94802000C4A002311002C324C
:10AEA000083110B54360838183738260036143611D
:10AEB0008361C383016004000830FEF701FA044B8C
:10AEC0001A68002A00D11C60200010BDF46F020037
:10AED0001C250020F7B50E00012504690192002C05
:10AEE00036D0238832889A4201D0002B23D1638840
:10AEF00072889A4201D0002B1DD1FEF755F901232B
:10AF0000002806D0C022A3881340C03B5A425341B8
:10AF1000DBB2019A934219D1A7883BB2002B15DB13
:10AF200010223100A0180BF0BEFE40231F4204D0B7
:10AF3000200009F0D2FC646AD1E7FEF735F9002859
:10AF4000F6D021000348FEF7E1FAF4E70025F2E726
:10AF50002800FEBDDB48020008B4024B9C460838BE
:10AF600008BC6047634A0200F0B587B001930EAB9E
:10AF70001B88060003930D9B0D000093019B02921A
:10AF80000C9F002B3DD0002F02D1009BDB0738D552
:10AF900028200BF055FE0400103008F0C3FD6B466E
:10AFA0001B891820258063800BF04AFE0500009B5A
:10AFB00008220593019B002103600C3004970BF0DD
:10AFC0008EFE082204A9281D0BF06DFE0E4B0222F6
:10AFD0006B6100230399E3602362636233680A4371
:10AFE000A560A2805B68210030009847002806D049
:10AFF000200008F0BCFC20000BF01AFE034807B04C
:10B00000F0BD0348FBE7C0469D4A020016FCFFFF67
:10B0100017FCFFFFF0B50400160000258380164AD8
:10B02000164B85710260218146810573186889B0CD
:10B030008C46A8421DD0124A05950492C022029265
:10B040006A4604AB82CB82C223002A006146FFF726
:10B050008BFFC022094B0A49186802926A46069182
:10B0600006AB079582CB82C223002A003100FFF78E
:10B070007BFF200009B0F0BD387002001C250020C5
:10B08000C74B020030B5002403730123034D8471C4
:10B090000560818082734373846030BD346F020029
:10B0A00070B583790400DB0702D580680BF0C0FD22
:10B0B000A3799B0702D5A0680BF0BAFDA3795B07C3
:10B0C00007D5A0230021144ADB00D150A0680BF063
:10B0D000AFFDA3791B0708D5A568002D05D0280072
:10B0E0000AF05BFA28000BF0A3FDA379DB0605D577
:10B0F000A068002802D00368DB6898476023A27923
:10B100001A4205D0A068002802D003685B689847FF
:10B110000023A360A37170BD00700040F7B5022743
:10B12000037B04000D003B4226D0012926D88679F6
:10B130003E40009614D1FFF7B3FF18200BF080FDBE
:10B140000E230600E3561822009901930BF0C7FD69
:10B15000019930000BF0C7FBA379A6603B43A371B4
:10B16000A3685A68002D04D00025DB681A60280007
:10B17000FEBD1B691A60FAE7014DF8E7014DF6E7DD
:10B1800016FCFFFF17FCFFFFF7B50126037B040049
:10B1900033422AD0612385791D4017D1FFF780FF04
:10B1A00018200BF04DFD0E230700E35618220093E4
:10B1B000637B290001930BF092FD019A00993800FE
:10B1C0000BF07FFBA379A7603343A3716023A279BF
:10B1D000A0681A4202D00BF0E3F9FEBD4369406853
:10B1E0001B681840431E9841F7E70148F5E7C04641
:10B1F00016FCFFFF10B50124837941731C4004D075
:10B2000080680BF028FC002010BD6022134203D0A0
:10B2100080680BF0CCF9F6E70048F5E716FCFFFF75
:10B2200070B5040000250C4B0E0008338580857135
:10B2300003602100183009F077FD20002100203044
:10B2400009F095FD054BA680E5802572E560256136
:10B25000656120001C6070BD487002003025002030
:10B260008379DB0702D5C160002070470048FCE706
:10B2700016FCFFFF8379DB0701D5C06870470148E2
:10B28000FCE7C04616FCFFFF70B545690400002DC1
:10B2900022D0037A032B21D8FFF7ECFFA8622C20E1
:10B2A0000BF0CEFC2C22002105000BF018FD002233
:10B2B00063695A622369934208D16369236100205C
:10B2C000237A65610133237270BD13005A6A002A24
:10B2D000FBD162695A62F2E70148F5E70148F3E7FA
:10B2E00017FCFFFF13FCFFFF144B70B55A68144C9A
:10B2F000002A03D000225A600132A2601A69002A93
:10B3000017D0002119618023DB000E4DE358286817
:10B31000012B0FD1A923DB00E1584942FFF7A0FF21
:10B320002868FFF7B1FF2B685A69074BE2500123E9
:10B33000A36070BDFFF794FFF9E7C046FC10004022
:10B3400000100040302500200405000003000069C3
:10B35000002809D00221054AD167426A1A611A7A87
:10B36000013A1A72024B19607047C04604E100E0CE
:10B3700000E100E00223024A11780B43137070478A
:10B38000472800200221024A13788B43137070472C
:10B390004728002010B5002903DB024B19600BF091
:10B3A00040FA10BD3425002070B504001E0004AB27
:10B3B0001D7805F0B9F920000E4B40302360FEF7F0
:10B3C00085FA230001364C33013522001E701D73AF
:10B3D0000023E1214E32A36463651380538093817F
:10B3E000D381013B200063644902FFF7D3FF2000B3
:10B3F00070BDC046E46E0200F0B5050007005C3584
:10B400005A372B883A8885B004009A421ED0104BD8
:10B410001B781B071AD52B88426DD15C0BF091F974
:10B420002300288858331978013006F0D7F83B8874
:10B430008EB2B34209D1074901230222684608F0BF
:10B440007BFB0121200009F0D3FC2E8005B0F0BD6C
:10B4500047280020FF030000F8B5114D04002B78A9
:10B460001B0705D5012109F0C3FC606DFEF702F949
:10B47000082623002F785833B7432F701878FEF72B
:10B48000C5F86065002808D0230000205A335C34DA
:10B490003E4318802E702080F8BD0248FCE7C0466D
:10B4A0004728002013FCFFFF73B50D0006A9040018
:10B4B00009780430002A01D1DE070ED5002D0CD00A
:10B4C00018264E430C34A41962600122A360044B79
:10B4D0002560636105F028FC73BD0022FAE7C046D1
:10B4E000994D0200F0B58BB00593030007000400EE
:10B4F0000025583306930433039104925A37079377
:10B50000049B9D4211DA069B3E881978701C06F058
:10B5100065F8079B89B21B888B4206D0039B626D3E
:10B520005B5D013593553980EAE7059B012B03D01C
:10B5300002210748FDF788FF012320000093054AF8
:10B5400000232100FFF7B0FF28000BB0F0BDC0467C
:10B55000FF030000F9B30100F7B5184C1F00237872
:10B560000500019116009B0724D4002A24DD002940
:10B5700022D0FFF7FFFE23781B0714D50024019B80
:10B58000321B191928003B00FFF7ACFF39002418C3
:10B59000280009F01DFC002F01D0A642EFDC280096
:10B5A000FFF7F0FE04E02800FFF756FF041EE5D089
:10B5B0002000FEBD024CFBE7024CF9E747280020C3
:10B5C0000DFCFFFF17FCFFFFF7B580277F053D69E6
:10B5D0007C690822113C6C430600210068460BF090
:10B5E00062FB104B009A9A4219D0009300230193FA
:10B5F000796930001339694309F009FC019A00990F
:10B60000300009F01CFC2100300009F000FC7969D1
:10B61000AB08133969432200300009F002FC01989D
:10B62000FEBDC046FECA0000F0B50D00A9B00D92E7
:10B6300000213022060010A80B930BF050FB2800CD
:10B640000BF08DFB431C0C93102B00D9B5E00B9B2A
:10B65000202B00D9B1E02900300009F01DFC071EA5
:10B6600050D129000C9A10A80BF01DFB0D990B9AD4
:10B6700014A80BF018FB80235B051A695F690C9214
:10B68000113F7A4330005D690B92FFF79DFF302236
:10B69000002104001CA80BF022FB290000270C9BB2
:10B6A00013395943300009F0B2FB0D9730257D4323
:10B6B0000B9B0833ED18A74242DA290030221CA860
:10B6C0000BF0F1FA10A91CA80BF03FFB002827D1C2
:10B6D0003C49300022000E910F9409F0B0FB6A46FD
:10B6E000099513AB23CB23C223CB23C223CB23C285
:10B6F0003000129B1099119A09F0AFFB01230D93B2
:10B700000137D3E710300B9A0D990BF0BDFA040006
:10B7100038000BF08DFA002CA3D1200029B0F0BD29
:10B720006A4609951FAB23CB23C223CB23C223CB6D
:10B7300023C230001C991D9A1E9B09F08EFBDFE787
:10B74000E5433023ED1725405D430B9B08355D191C
:10B750000D9B002B1DD10C9B3021981E05F0CEFDBA
:10B76000A0422CD017490134300022000E910F94D2
:10B7700009F065FB6A46099513AB23CB23C223CBA3
:10B7800023C223CB23C230001099119A129B09F0D7
:10B7900064FB0B99300009F03AFB80235B05596983
:10B7A0000C230C9A133963434A43023311003000CF
:10B7B0000B9A09F036FB0024AFE7034CADE7034CCE
:10B7C000ABE7C046FECA000017FCFFFF13FCFFFFFB
:10B7D0008023F0B55B051A6995B003925A6905910B
:10B7E0000399113A51435D69039B133D0400029193
:10B7F0005D43FFF7E9FE061E3BD000273022002103
:10B80000083508A801950BF06AFA0199200009F0A3
:10B81000FEFA049730237B43029D0835ED18B742AA
:10B820001FDA2900302208A80BF03DFA059908A874
:10B830000BF08BFA00280AD11949721E20000691DC
:10B84000079209F0FCFA012304930137E2E70C2385
:10B85000019A2900200009F0E4FA019B303301939A
:10B86000F3E7049B002B06D10D493200200009F0BC
:10B87000E6FA0C4812E00299200009F0C8FA802389
:10B880005B0559690C23039A13394A43734311002A
:10B8900020000233029A09F0C4FA002015B0F0BD6E
:10B8A000FECA00000CFCFFFF70B50400A280FA2263
:10B8B000002308000C49920008312160A3716061E7
:10B8C000E260A3606382094909F0E6FA051E09D027
:10B8D000010020001031022212300BF0E4F92800A0
:10B8E0000BF0A6F9200070BD60700200D87C020049
:10B8F00030B50225837987B004002B4204D1FDF7CF
:10B90000DFFCA3791D43A571200009F00FFB00287F
:10B910001CD06B46DD1C280009F0FFFA2B78002BA9
:10B9200017D001A809F0F7FA0321019AD3170B40A9
:10B930009B189B102382FDF74BFFE368A188181822
:10B940000123A0601A0002A808F0F6F8002007B052
:10B9500030BD0122064B1A60064A51680029FCD00E
:10B9600000215160044A1268019201225A60DBE70B
:10B9700000C00040FCC0004008C50040022802D1C1
:10B980000122014B1A7070474828002070B5064C00
:10B9900005002378002B04D1044801F0D9FF0123CE
:10B9A0002370280070BDC046492800207DB90100E1
:10B9B00070B50C0007F0BDFE002810D00023144D18
:10B9C000A40A2B70200009F0C5FA002803D00A2031
:10B9D0000BF035F8F6E72B78002BFCD070BD022178
:10B9E0000C4B0D4A99508021C90008005D58002D6C
:10B9F000FCD0A121C9005C5019580029FCD00021BD
:10BA000099508021C9005A58002AFCD0E6E7C04668
:10BA10004828002000E0014004050000F8B50C00B3
:10BA200015001E0007F085FE002811D00023174FD7
:10BA30003B7032002900200009F08AFA002803D068
:10BA40000A200AF0FCFFF4E73B78002BFCD0F8BD9D
:10BA500001210F480F4B844619508021C9005A58C4
:10BA6000002AFCD080270022FF00964207DD9100CB
:10BA700068586050D9590029FCD00132F5E70022FE
:10BA800061465A50DA59002AFCD0E0E748280020E5
:10BA90000405000000E0014008B4024B9C46443815
:10BAA00008BC6047594F0200FA21F8B50389C90064
:10BAB00004005943324809F015FDFA21890005F0C8
:10BAC0001DFC304F2081A17A380009F00BFD2300C6
:10BAD0002600250022894C33A072A0361A808C35AE
:10BAE000317800232A22286808F042FE002801D07D
:10BAF0002548F8BD31781F235B22286808F038FEFE
:10BB00000028F5D1317820235C22286808F030FE27
:10BB10000028EDD1317801232C22286808F028FE76
:10BB20000028E5D1317801232D22286808F020FE75
:10BB30000028DDD1317801232E22286808F018FE74
:10BB40000028D5D1A17A380009F0C7FC3178C3B2FA
:10BB50000E22286808F00CFE0028C9D1FA2123899A
:10BB600089005943064809F0B8FC01230343DBB2BE
:10BB700031782A22286808F0FBFD0028B9D0B7E701
:10BB800080700200787002000EFCFFFF08B4024BC8
:10BB90009C46443808BC6047A9BA0100074B10B561
:10BBA0001A00040008323C3302604364443008F059
:10BBB000DFF9200008F00FF9200010BDE07002004E
:10BBC00008B4024B9C46443808BC60479DBB01004A
:10BBD00008B4024B9C46443808BC6047634F0200DF
:10BBE000F0B5042583798BB004002B4204D1FDF716
:10BBF00067FBA3791D43A57120009030FFF7C4FABD
:10BC00000026B0420FD12300A033197820000C2366
:10BC100007AD00938C302B0001220068FFF740F83D
:10BC2000061E03D02C4E30000BB0F0BD0A2304AA30
:10BC30009B182A785A706A781A700022985EAA783F
:10BC40005A70EA781A700022995E03912A795A7024
:10BC50006A791A7000229F5EAA795A70EA791A707E
:10BC600000215A5E04922A7A5A706A7A1A70002168
:10BC70005A5E0592AA7A5A70EA7A1F251A70002233
:10BC80009B5EA27A03999C46514349425043CB178D
:10BC90002B407A435B185B11A361C3172B40181824
:10BCA000D3171D406423AD18059A5B425343A36725
:10BCB00064236146049A40115A434B43E2676D1175
:10BCC000221DE06125622000D36708F0F6F820000D
:10BCD000443008F054F9A6E70EFCFFFF08B4024B0D
:10BCE0009C46443808BC6047E1BB0100F7B51E0024
:10BCF000040008AB1B881500019309AB00911A885A
:10BD000031000AAB1F88FDF799FF20003A0031008F
:10BD10004430FEF7E9F9134B20001A003C3363640A
:10BD2000230008322260009A8C331A60AB8890306E
:10BD30008380AB796A4683710B4B92880360AB6852
:10BD4000032183602B7B03736B7B4373AB7B837318
:10BD50002300A0331A80FFF74DFA2000FFF7A4FE5E
:10BD60002000FEBDE0700200346F0200F8B5FA2634
:10BD70000189B60004007143264809F0B3FB310085
:10BD800005F0BCFA244F2081A17A380009F0AAFB03
:10BD90002500A0725835297800232A22606C08F00B
:10BDA000E7FC002801D01D48F8BD297810232B227C
:10BDB000606C08F0DDFC0028F5D1297801232D22E4
:10BDC000606C08F0D5FC0028EDD1297801232E22E3
:10BDD000606C08F0CDFC0028E5D1A17A380009F0AC
:10BDE0007CFB2978C3B20E22606C08F0C1FC0028ED
:10BDF000D9D121890748714309F06FFB012303431F
:10BE0000DBB229782A22606C08F0B2FC0028CBD083
:10BE1000C9E7C04648710200407102000EFCFFFFF6
:10BE200010B50400034B0833036007F0D4FF200073
:10BE300010BDC046A87102007FB5042583790400B7
:10BE40002B4204D1FDF73CFAA3791D43A5712000D4
:10BE50004830FFF799F90025A8420DD12300583347
:10BE60001978062302AE009301223300606CFEF7BE
:10BE700017FF051E03D00D4D280004B070BD02232E
:10BE800000210420F356A27ADB007156305653434A
:10BE9000C000C900514342435B42A3612368E16192
:10BEA00022629B6A20009847E6E7C0460EFCFFFF2F
:10BEB000F8B50400150006AA168807AA0F00128814
:10BEC0001900FDF7BBFE0F4B6764083323602300A6
:10BED000AA8848339A80AA7920009A710A4AA264F3
:10BEE000AA6822652A7B1A736A7B5A73AA7B9A73A3
:10BEF0000023A371230058331E80FFF737FF200073
:10BF0000F8BDC046A8710200346F020010B50400ED
:10BF1000034B0833036008F02BF8200010BDC04627
:10BF20003C720200F0B507005C3787B00400397836
:10BF300000231022806C08F01BFC0326002802D08E
:10BF40001F4807B0F0BD0F2502ABED18012339786B
:10BF500008220093A06C2B00FEF7A2FE184B98421B
:10BF6000EED02B78334203D06420FDF743FAEAE7A2
:10BF7000FA262189134DB6007143280009F0B2FA60
:10BF8000310005F0BBF920813978A0231122A06C83
:10BF900008F0EEFB0028D3D1A36C218903937143F1
:10BFA00028003F7809F099FA01231843C3B2102200
:10BFB0003900039808F0DCFB0028C2D0C0E7C04677
:10BFC0000EFCFFFFDC71020070B50825837986B096
:10BFD00004002B4204D1FDF773F9A3791D43A57129
:10BFE00020004C30FFF7D0F8061E0DD023005C3344
:10BFF0001978062304AD009301222B00A06CFEF7F4
:10C000004FFE061E03D0134E300006B070BD0E2347
:10C010002A786B445A706A7820001A700022995E60
:10C0200064224A43A263AA785A70EA781A700022FE
:10C03000995E64225242514361632979597069794A
:10C04000197000215B5E5A432368E2631B6A9847BC
:10C05000DAE7C0460EFCFFFFF8B50400150006AA9B
:10C06000168807AA0F0012881900FEF73DF80D4B3D
:10C07000A764083323602300AA884C339A80AA79E6
:10C0800020009A71084AE264AA6862652A7B1A73E2
:10C090006A7B5A73AA7B1E829A73FFF743FF2000C4
:10C0A000F8BDC0463C720200346F0200F7B5FA25B5
:10C0B0000189204FAD0004006943380009F012FAED
:10C0C000290005F01BF9A17A20811B4809F00AFA22
:10C0D0002600636CA0720093218958363378694337
:10C0E0003800019309F0F9F907230343DBB220225A
:10C0F0000199009808F03CFB002801D00F48FEBDD4
:10C10000317810232222606C08F032FB0028F5D130
:10C11000A17A0948656C377809F0DFF980235B4222
:10C120000343DBB223223900280008F021FB00285A
:10C13000E5D0E3E770720200687202000EFCFFFFB8
:10C1400010B50400034B0833036007F044FE2000E1
:10C1500010BDC046E0720200F0B50425837985B0B9
:10C1600004002B4204D1FDF7ABF8A3791D43A57160
:10C1700020004830FFF708F8061E0DD02300583382
:10C180001978062302AD0093A8222B00606CFEF7FD
:10C1900087FD061E03D0144E300005B0F0BD1F20F1
:10C1A0000023EA5ED31703409B180222A95E5B11AD
:10C1B000CA170240521804216F5E5211F91701404C
:10C1C000C91949112B806A80A980A07A4343424350
:10C1D00041435B42E36123685242A26121629B6A50
:10C1E00020009847D8E7C0460EFCFFFFF8B50400D2
:10C1F000150006AA168807AA0F0012881900FDF775
:10C200001DFD0F4B6764083323602300AA88483361
:10C210009A80AA7920009A710A4AA264AA682265C3
:10C220002A7B1A736A7B5A73AA7B9A730023A371C1
:10C23000230058331E80FFF739FF2000F8BDC046A9
:10C24000E0720200346F0200F7B5FA25040001899C
:10C25000134EAD006943300009F044F9290005F0A0
:10C260004DF82700A36C208100935C373B7881B2A6
:10C2700069433000019309F030F96022C3B201999B
:10C28000009808F075FA002801D00648FEBD3978FC
:10C2900001236222A06C08F06BFA0028F6D0F4E7C4
:10C2A000147302000EFCFFFF10B50400034B0833AB
:10C2B000036007F05DFE200010BDC0463C73020025
:10C2C0007FB50825837904002B4204D1FCF7F8FFE1
:10C2D000A3791D43A57120004C30FEF755FF051EC4
:10C2E0000DD023005C331978062302AE0093E822B8
:10C2F0003300A06CFEF7D4FC051E03D00B4D2800C4
:10C3000004B070BD0223F25E96235B425A4362631F
:10C310000021725E20005343A3630423F25E962340
:10C320005343E36323681B6A9847E8E70EFCFFFF6B
:10C33000F8B50400150006AA168807AA0F0012888F
:10C340001900FDF7D1FE0D4BA764083323602300CD
:10C35000AA884C339A80AA7920009A71084AE2642C
:10C36000AA6862652A7B1A736A7B5A73AA7B1E824B
:10C370009A73FFF769FF2000F8BDC0463C730200C6
:10C38000346F020010B50400054B083303601C3005
:10C3900007F037FB2000183007F033FB200010BDFA
:10C3A00068730200FF23F0B52C4D8DB02B70002375
:10C3B000040069460088009303F0E8FF002802D1DA
:10C3C0006B469B782B70264E3368DB68002B07D1B9
:10C3D000002320881A00190008F033FE0DB0F0BDCC
:10C3E0002B78032BF4D81F4901A8FDF735FA3368E1
:10C3F00001A9DE6804A807F05BFB04A9300008F07F
:10C400007EFD0027060004A807F0FBFABE421ED0FE
:10C4100031002022103104A80AF045FC30000AF057
:10C4200007FC297804ABC9005918082202A80AF0B1
:10C430003AFC20880123082202A908F002FE0137F5
:10C44000002804D12088084A0C2108F0F8FD01A832
:10C4500007F0D7FA002FBBD0C0E7C04691200020DC
:10C46000442500206B7D0200FFFF0000F0B58379BA
:10C4700091B004005B071BD5FDF7AAF900232269E0
:10C48000801A9941994203D1F423FF3398420FD97E
:10C49000A068002808D0364B1D8809F09BF8036877
:10C4A00015221B6A290098470422A3799343A3719C
:10C4B000A3799B0759D52F4D2B68DB68002B50D0F3
:10C4C0002D4B1B78032B4CD8294B2C491B8804A8D7
:10C4D0000193FDF7C1F92B6804A9DE6808A807F0ED
:10C4E000E7FA08A9300008F00AFD070008A807F0DD
:10C4F00088FA02AB9E1D08233200338006A9073B51
:10C50000019808F0A0FD002F08D03900202210313A
:10C5100008A80AF0C8FB38000AF08AFB164B3288DC
:10C520001B7806A9DE0008AB9E1930000AF0ACFBB0
:10C53000002813D0082206A930000AF0B4FB2B68AB
:10C5400004A9DD6805A807F0B3FA202308AA05A905
:10C55000280008F0DAFC05A807F053FA04A807F051
:10C5600050FA0222A3799343A37111B0F0BDC046E3
:10C57000C027002044250020912000206B7D020070
:10C58000F7B5089E0500152922D8012007008F4025
:10C59000244C27421CD0E97FCC181F2C41DC6918A1
:10C5A0003418A14210D80021C8B2834204D9545C87
:10C5B000701884700131F7E732789A183270EA7F88
:10C5C0009B18EB7700202CE00878C8540139E8E785
:10C5D0003478013CE4B2A34208D10023D9B28C42A2
:10C5E000F0D9D05CF11888700133F7E7EF7F0120B4
:10C5F000FF183F1B1F2F14DC0227A01C7F42361898
:10C60000381B0190E87F2F18BE4204D23078019F7A
:10C61000F0550136F6E7041B023CEC77280008F0E1
:10C620005CFDFEBDFC002000F0B585B001930AABB7
:10C630001E880BAB1B78451C02930EAB1B780400C5
:10C6400003930B78170003704B8A10224382013149
:10C6500028000AF028FB6B469B88268363836B4681
:10C660001B7B002623776B4601221B7A6761E683DA
:10C67000EB77A31CDA770C9B0C2563622300200068
:10C680000D9A28331A705E709E702A0031002C308B
:10C690000AF025FB2000074BE663A3632A00310064
:10C6A00040300AF01CFB2000034B2665E36405B014
:10C6B000F0BDC0465D5002004F50020070B50D0045
:10C6C00008F088FF04000368002D09D15B699847D2
:10C6D000FA2080006843074904F010FEE08070BD36
:10C6E0009B6898478542F3D2236820009B6898474F
:10C6F0000500EDE771020000F0B507001600A1B0DB
:10C7000002C704006B4918A81D0008F02DFD331E58
:10C7100003D030000AF023FB83B2012204920022EE
:10C7200003920292023201920093320018A938005B
:10C73000FFF77AFF23006049583318A8079308F0E1
:10C7400013FD2B1E03D028000AF009FB83B201223F
:10C7500004920022039202920232019200932A0074
:10C7600018A90798FFF760FF23005449AC3318A8B5
:10C77000089308F0F9FC269B002B03D018000AF060
:10C78000EEFA83B201220492002203920292023254
:10C7900001920093269A18A90898FFF745FF631C99
:10C7A000FF33474918A8099308F0DEFC279B002BAC
:10C7B00003D018000AF0D3FA83B2012204920022B7
:10C7C000601C03920292023201920093279A18A9E8
:10C7D000FF30FFF729FF23005533FF33394918A8ED
:10C7E000099308F0C1FC289B002B03D018000AF025
:10C7F000B6FA83B20122049200220392029202321C
:10C8000001920093289A18A90998FFF70DFF2300B9
:10C81000A933FF332C4918A80A9308F0A5FC299BDB
:10C82000002B03D018000AF09AFA83B20122049276
:10C83000002218AD03920292023201920093299ACB
:10C8400029000A98FFF7F0FE204B1B780B93002B72
:10C850002DD1079B12971393089B0DAF1493631C64
:10C86000FF331593099B1A4916930A9B38001793B7
:10C8700008F07AFC1D2149203B7810222B707B8A1E
:10C8800012AE6B8206ABC918C0180AF00CFA062368
:10C890002B756B469B8D2068AB83AE6108F09EFEC6
:10C8A000036829001B6898470122084B1A70200072
:10C8B00021B0F0BD292A0000242A0000252A00000A
:10C8C000272A0000262A0000282A00004A280020E3
:10C8D0000A18000070B5002504000B4B8580083352
:10C8E00085710360C1601830FCF7F0FF20001C3038
:10C8F000FCF7ECFF0123621CD377044AA560656155
:10C9000020001460A37170BD6873020044250020EC
:10C91000FA2130B585B0050001230222890068465E
:10C9200007F00AF9074C2068002809D008F055FCE8
:10C930002988054B22681980022391790B43937152
:10C9400005B030BD44250020C027002010B50C00E4
:10C9500007290DD8806808F03DFE064B195703687B
:10C960005B6C9847431E9841034B4042184010BDF2
:10C970000248FCE7637D020016FCFFFF17FCFFFF87
:10C98000F0B5A44C0D00A544040007939AAB1B78A6
:10C99000A14909A804930692FCF75EFF2000290034
:10C9A0001C3007F08DF8C020800000F0C7FF082081
:10C9B0000AF046F90600002100F0AEFE15ADA660B3
:10C9C00000210C220EA80AF08AF92B000EAA83CAB5
:10C9D00083C3924B2900EB60002330002B6108F0E9
:10C9E000E2FDA06808F0F6FD08220021059016A8D7
:10C9F0000AF075F914200AF023F929000200884B87
:10CA00001593C8C9C8C2874B059EC3600023A436CE
:10CA100003613368002B00D0F5E03060A06808F0B7
:10CA2000DDFD08220021060016A80AF058F914209E
:10CA30000AF006F97C4B1593030086CD86C37B4B29
:10CA4000C36000230361336B002B00D0DDE0306353
:10CA5000A06808F0BFFD08220021050016A80AF012
:10CA60003EF914200AF0ECF8714B15AE1593030053
:10CA700086CE86C36F4B9835C360002303612B6855
:10CA8000002B00D0C3E02860012504AB1B7C04AA66
:10CA90002B4308A92800137408F0D7FAA06808F0FF
:10CAA000A1FD036864495B6A9847A06808F09AFD95
:10CAB000036862499B699847A06808F093FD0023CA
:10CAC00002680093166804992A00B047049B002B63
:10CAD0000AD0200008F08AFB032805DDA06808F0D2
:10CAE00081FD0368DB6898470EA808F0EDFA2F2057
:10CAF00004ABC01808F0E8FA362004ABC01808F000
:10CB0000E3FA3D20042504ABC01808F0DDFA0EABB3
:10CB10000A93A06804AB5D7708F064FD03680AA976
:10CB20001B699847A06808F055FD03680AA95B6D6A
:10CB30009847A06808F04EFD03680021DB6D984718
:10CB4000A06808F047FD036802219B6D984700210B
:10CB50002000FFF7FBFE18200AF072F8A16800F031
:10CB600055FA374B374A1B68A1680393364B15A813
:10CB70001B6800260293354B0CAF1B680193069B84
:10CB80001B685B190093324B12681B68FFF7B4FDFA
:10CB900030200AF055F8079AA16800F0F7FAA0686B
:10CBA00008F018FD036839009B6A9847294BBE803E
:10CBB000A0680C9308F00EFD03683900DB6A984703
:10CBC0002900A06808F0DCFA099A09219378A06886
:10CBD000521908F0E8FAA06808F0FCFC322106714E
:10CBE000A068FFF76BFD04AB1B7FB34204D0A068C5
:10CBF00008F0F0FC08F0AEFA09A806F002FF952351
:10CC00009B009D44F0BD036107E703611FE70361DB
:10CC100039E7C046ACFDFFFF507E02006B500200BA
:10CC200011C9010079500200A5C30100875002001C
:10CC3000B55002009550020059CC01008DCC010086
:10CC4000402500203C250020082000203825002019
:10CC50000C2000200800100013B506226846FCF7DF
:10CC60000BFE094B1C68002C0AD0694601A806F08F
:10CC70001FFF200001A908F0DAFA01A806F0C1FEA2
:10CC8000684606F0BEFE13BD44250020002373B5A0
:10CC900001AE0C0031000500019303F077FB002882
:10CCA00002D1B278064B1A70064B1868002806D0DD
:10CCB00061426141044BC9B21D8008F0C0FA73BDE6
:10CCC0009120002044250020C027002030B5284CAA
:10CCD000A9B06A220D000DA8210009F0E4FF0DA9FA
:10CCE00003A8FCF727FE03A906A806F055FF0123B9
:10CCF0000193013BFF3B00930533FF33642206A9F8
:10CD00002800FDF775FF06A806F039FF210019225B
:10CD10006A3106A809F0C7FF05220024110006ABFE
:10CD200004A806F060FF04A905A806F035FF0194E9
:10CD300000942300220005A92800FDF79DFE05A808
:10CD400006F01DFF21002800FDF780FF05340520B7
:10CD5000FCF750FBFF2CF5D1FA208000FCF74AFBD2
:10CD600004A806F00CFF03A806F009FF29B030BDA7
:10CD7000E07C0200F0B59C4B95B005921A68082340
:10CD800004000391D16C06A80B43D3649749FCF7C8
:10CD900063FD974907A8FCF75FFD220000250DAE53
:10CDA00030001C3206A906F09AFE07AA310008A836
:10CDB00006F095FE300006F024FE631CDD77A068C7
:10CDC00008F008FC03680BAF5B699847300008F077
:10CDD0007BF92B2004ABC01808F076F9322004ABA5
:10CDE000C01808F071F9392004ABC01808F06CF9CC
:10CDF0008023DB00BB80A0680B9608F0EBFB036888
:10CE000039005B6D9847A06808F0E4FB03682900CF
:10CE10009B6D9847A06808F0DDFB070006000A3705
:10CE20001F222900380009F05AFFFD77300008F072
:10CE300088F90621A06808F0A3F9089A09219378D7
:10CE4000A068043208F0AFF9A06808F0C3FBC8215D
:10CE50000571A068FFF732FCA06808F0BBFBFF2754
:10CE60002E000581A06808F0B5FB08F073F903985F
:10CE7000FDF796FD2000FCF723FA03992000FFF749
:10CE800025FF0399200008F0EDF904950125636959
:10CE90001D402DD0574909A8FCF7CAFD09A90AA8C9
:10CEA00006F07AFE00220AA913000192009203986C
:10CEB000FDF7E2FD0AA806F062FE049B002B42D1BA
:10CEC000043F282F41DD0025FE2F00DC049D05983E
:10CED00007F03AF8002806D0012362699A4313004C
:10CEE000042213436361002609A806F048FE049556
:10CEF00004226369134233D0FF210398C826FDF74B
:10CF0000A5FE0025B600A36902229B5EAB4222DD8E
:10CF1000200029B2183006F0F8FD00230100039824
:10CF20001A007430FCF7D4FD3000FCF763FA039864
:10CF300007F011FCC820FCF75DFA02226369134276
:10CF400009D10135DFE70437BBE7039807F003FC9D
:10CF5000002FBCDDBAE7FA208000FCF74BFA002670
:10CF6000022365691D421CD006331D4024D022498E
:10CF700009A8FCF75DFD09A90AA806F00DFE00222C
:10CF80000AA90192009213000398FDF775FD0AA803
:10CF900006F0F5FD1948FCF72DFA09A806F0EFFD9B
:10CFA000174E6420FCF726FA164B01369E4200DC31
:10CFB0006CE706F0D0FB69E7134909A8FCF738FDD8
:10CFC00009A90AA806F0E8FD2B002A000AA9019584
:10CFD00000950398FDF750FD0AA806F0D0FD09A8BA
:10CFE00006F0CDFDDDE7C046C8240020777D0200B5
:10CFF000877D0200897D0200CE7D0200983A000004
:10D000008C0A00008B0A00000B7E02000022594BA4
:10D01000F0B50833060003600F001000A9B0B1603E
:10D020000BAB991801324870102AFAD10F3A524CC2
:10D030001A700E32105D991A0874013AFAD2997B6F
:10D040005A7B09020A4331000C31039125211B78D8
:10D0500013AD2B7002ABC918452302A81B186A82B6
:10D060001800102209F01FFE039B64216B6101234D
:10D07000002402AA2B7752181993093313701DABA1
:10D080001C706D2302AA9B181C706E2321009B1834
:10D090001EA80C22EC836C621C7009F020FE374B3A
:10D0A0000C22210023A8AB63EC6309F018FE344B7B
:10D0B00002AAEB6446239B180322DA7722002C6530
:10D0C0000595347306AD2B1901345A70102CFAD122
:10D0D00001232C482B700E33195CEA1A1174013BA2
:10D0E000FAD211212520AA7B6B7B12020BAC1343D1
:10D0F0002A78638202ABC9182270C018102209F086
:10D10000D2FD0123237505ABA36100233800A3835F
:10D1100008F064FA036821001B68984713ABDB8BA7
:10D12000B068B38208F05AFA002203680092B18A0C
:10D13000039ADC680123A047B06808F04FFA0700A3
:10D14000142009F07DFD00220123040002610692F3
:10D1500040C008322900079309F0A5FD0A4BE3609F
:10D16000BB69002B03D13000BC6129B0F0BD236145
:10D17000F9E7C04680730200647E02005D50020041
:10D180004F500200747E0200C5520200F0B5002626
:10D190000400724BDDB0083303608160C26086809A
:10D1A000867132006E4947A808F02CF92300143329
:10D1B0000125042708931223009704950193089AE8
:10D1C000330047A9039602961DA8FFF72DFA3200F7
:10D1D000644947A808F016F90C2322000097103282
:10D1E00015AF0495019347A933000396029632A820
:10D1F000FFF71AFA32005C49380008F003F9210001
:10D200001C310991042308210495019100933900F0
:10D210003300099A0396029647A8FFF705FA3200F1
:10D220005249380008F0EEF8542009F009FD2100B9
:10D2300012220423183107910495019200930A00E9
:10D2400033003900039602960690FFF7EDF9069A2F
:10D25000474B1000A262D4620AA9082230300A9318
:10D260000B9609F020FD434B069A099993632932E6
:10D27000157026610422E661079809F014FD042266
:10D280000799089809F00FFD6622032304A9521894
:10D29000D377BA225218D377872252005218D37705
:10D2A000069A35490232D3771DAA0C9232AA0D9202
:10D2B00047AA0E92069AA6850F9210A8320008F08F
:10D2C000A1F83021452004AA52181378123104AA7B
:10D2D0003B705218138811397B8204AB1022C91895
:10D2E000C01809F0E0FC04230CADA0683B75BD61DB
:10D2F000BE8308F073F9036839001B6898478222DF
:10D3000004AB9B181B885432238404AB9B181B88E6
:10D310005432A38404AB9B181B88A068638408F074
:10D320005DF90700142009F08BFC0500134B066122
:10D33000082210C010A91093119609F0B4FC104BEC
:10D34000EB60BB69B34206D1BD612000FBF7B8FFBB
:10D3500020005DB0F0BD2B61F6E7C0468C73020083
:10D36000A47E0200847E0200947E0200B47E02004D
:10D37000D753020043530200C47E0200EDD30100E4
:10D380006D530200F0B504000E00150085B01F00BB
:10D390000CAB1B881030019306F0C4FB268065801F
:10D3A000182009F04DFC02AE050033000AAA03CA9A
:10D3B00003C32F602800082700213A000C3009F031
:10D3C0008EFC3A003100281D09F06DFC064B02224C
:10D3D0006B61200000230199A5600A43E360A280ED
:10D3E0002362636205B0F0BD97530200F0B50B896C
:10D3F0008DB00593CB68050004934B88828C9A42CC
:10D400000ED1049C049B059A9B181B1B032B39DD32
:10D4100062882188012308A806F08EFB0434F1E716
:10D42000428C9A422ED1049C049B059A9B181B1B8C
:10D43000032B27DD2388282006936388EF68079352
:10D44000114B08930023099309F0FAFBC0236A46A5
:10D450000600029308AB03CB03C22B000699079A80
:10D460003000FFF78FFF3B6831005B68380098475A
:10D47000002805D0300006F07AFA300009F0D8FB19
:10D480000434D1E70DB0F0BD5554020070B504006E
:10D4900090B0806807F0D9FF022101401AD1A38D16
:10D4A000002B17D00C4B6A4604931023E568A18526
:10D4B0000591029304AB41CB41C20A00230006A8A8
:10D4C000FFF760FF2B6806A99B682800984706A80D
:10D4D00006F04DFA10B070BD55540200002815D06A
:10D4E000006041608260C360046145618661C7611C
:10D4F000444604624C464462544684625C46C462BC
:10D50000644604636E46466374468463002A06D00C
:10D51000C46B043C043A25681560B442F9D18C6BA5
:10D52000A6464E6BB546002B06D0CC6B043C043BA4
:10D530001D682560B442F9D10C6BA446CC6AA346A1
:10D540008C6AA2464C6AA1460C6AA046CF698E69D5
:10D550004D690C69CB688A68086849687047006043
:10D5600041608260C360046145618661C761444671
:10D5700004624C464462544684625C46C46264461B
:10D5800004636E46466374468463C46B043C04398A
:10D5900025680D60B442F9D1C76986694569046997
:10D5A0007047006041608260C360046145618661CC
:10D5B000C761444604624C464462544684625C46F9
:10D5C000C462644604636C464463744684630469BD
:10D5D0007047846BA646446BA546046BA446C46A98
:10D5E000A346846AA246446AA146046AA046C76963
:10D5F000866945690469C368826800684168704744
:10D6000010B5041E0CD009F0AAFB431EE3189C427F
:10D6100008D222781978013B21705A700134F6E75C
:10D62000014810BD0020FCE717FCFFFFF0B585B0F6
:10D6300002900C1E2AD00023C217161A56400193DE
:10D64000019B30005D1C63190A215F1E039303F0E8
:10D65000C5FF49423031397030000A2103F0D8FE4D
:10D6600047420600002F0FD1029B002B04DA2D2326
:10D67000019D039A02351370002320006355FFF7C4
:10D68000BFFF380005B0F0BD0195D9E7004FF8E7BE
:10D6900017FCFFFF0268084B406810B5C018C000B7
:10D6A000101803009A4205D81C688C4202D3180057
:10D6B000083BF7E710BDC046FFFFFF1F70B500280D
:10D6C00017D1114D2E68002E11D1083009F0B8FA8B
:10D6D000066046600D4E04003368002B02D108F04E
:10D6E00019FC306023682C609B00F3586360286845
:10D6F00070BD0122064907480B681340F8D102604B
:10D7000043600A60F4E7C0464C25002058250020FD
:10D710004825002050250020002370B5040001603A
:10D72000436099420AD1064D2B68002B02D108F0C4
:10D73000F1FB286023689B00EB586360200070BDFC
:10D7400058250020436810B50400002B02D104487E
:10D7500009F07CF9606803681B69984710BDC046F2
:10D76000D47E0200436810B50400002B02D10448A7
:10D7700009F06CF9606803689B69984710BDC04662
:10D78000D47E0200436810B50400002B02D1044887
:10D7900009F05CF9606803685B6A984710BDC04691
:10D7A000D47E020010B5040001F048FD034B1B6855
:10D7B000002B01D02000984710BDC04660250020F6
:10D7C000F0B58BB0050002F021FC002000F0B4FDA4
:10D7D000036807001B6998473B6804009B69380091
:10D7E00098473B6806005B6A380098470300288822
:10D7F00010380B2862D803F077FD063E6161615B4B
:10D80000616161676179AF882000390008F02BFD04
:10D8100022006B7B583201931378A8799C4602232F
:10D8200061460B43137004AB1F80012304AA93705D
:10D83000D07013006A461279E91D9A722B000622F5
:10D84000163305A8099309F02EFA29000B2004AB22
:10D8500006220E31C01809F026FA94346368A360DA
:10D86000A06800282AD0C36804A99847A368002BA1
:10D87000F4D01B69F3E720002F49AF8808F0F3FCD0
:10D880002200022058321378A9798343137004AB25
:10D890001F809970A0346368A360A06800280DD031
:10D8A000C36804A99847A368002BF4D01B69F3E769
:10D8B0005B69A888A91D002B00D09847290030007B
:10D8C00007F0E4FF0BB0F0BD636E002BF6D0AF792C
:10D8D000A366A06E0028F1D0C36839009847A36EF4
:10D8E000002B01D1636EF3E71B69F1E70122694662
:10D8F0000D27AB7BEF571A4001925A07920FDB08B6
:10D900000A720B730622E91D04A809F0CCF96A46D5
:10D91000127904ABDA716A46127A9F711A726A46FA
:10D92000127B20005A722B000F3307938C34803007
:10D93000236804A99847C1E7FFFF00000723D72801
:10D9400002D9024B18600023180070475C250020A4
:10D95000014B18607047C046602500201FB580222B
:10D96000A323D205DB00D3580820DB0700D4053001
:10D970001C4B48221C4901F0B5FE00280AD080B299
:10D98000002807D1BFF34F8F184B194ADA60BFF355
:10D990004F8FFEE7002302A8029301330370154B5B
:10D9A0001B68436007F026FE002802D0072005B060
:10D9B00000BD684607F01CFE0028F7D1694607F055
:10D9C00015FE0028F2D10C4801F0BCFE80B2002800
:10D9D000EDD10A4801F0C0FE80B20028E7D100F086
:10D9E000D7F9E4E7F95502006425002000ED00E0D6
:10D9F0000400FA055C250020C1D70100A5D701006D
:10DA000080B2002807D1BFF34F8F034B034ADA607F
:10DA1000BFF34F8FFEE7704700ED00E00400FA050A
:10DA200013B504680093A46813000A000149A047D5
:10DA300016BDC046FFFF000037B506AC2578046868
:10DA400001950093246913000A000149A0473EBDD7
:10DA5000FFFF0000F0B587B00D00002469466F4657
:10DA600016004C800DAA0CA9098812783980019300
:10DA7000A2421BD101004479F83194420DD90831FA
:10DA80000F00083F3F88B7421BD13021203292005F
:10DA900012580132D27F0A4215D16A46310028005D
:10DAA00007F0B2FD002808D1062407E06A463100DD
:10DAB000280007F0A9FD002800D00324200007B0AB
:10DAC000F0BD0132D9E710210A4051424A410020FD
:10DAD00002ACE3600CABA360174B01322680A2704E
