:020000021000EC
:10800000004000206D0F0200A90F0200AB0F02001C
:108010000000000000000000000000000000000060
:10802000000000000000000000000000AD0F020092
:108030000000000000000000AF0F0200B10F0200BE
:10804000B30F020011B40100FD0B0200B30F0200D8
:10805000B30F0200000000006D0D0200B30F02001C
:10806000B30F020065070200DD0C0200B30F02002F
:10807000B30F0200B30F0200B30F0200B30F0200F0
:10808000B30F0200B30F0200B30F0200B30F0200E0
:10809000B30F02002DF80100B9F90100B30F02007F
:1080A000B30F0200B30F0200000000000000000048
:1080B00000000000000000000000000000000000C0
:1080C00010B5064C2378002B07D1054B002B02D0AE
:1080D000044800E000BF0123237010BD6821002088
:1080E00000000000AC800200044B10B5002B03D050
:1080F0000349044800E000BF10BDC0460000000076
:108100006C210020AC800200164B002B00D1144BD8
:108110009D46402292029A1A924600218B460F46B3
:108120001348144A121A0EF0EEFD0F4B002B00D02C
:1081300098470E4B002B00D09847002000210400E8
:108140000D000D48002802D00C4800E000BF0AF0E6
:1081500085FE200029000EF0D1FA0AF069FEC04623
:1081600000000800004000200000000000000000A7
:1081700060210020FC290020000000000000000019
:10818000F0B5002489B00191254905000A0004A832
:1081900002900EF01AFD029B03941C706B68A342C0
:1081A0001ADD1F23012723409F402800EB6A660940
:1081B000B6009A591B493A40531E9A4144300EF07A
:1081C00069FAEB6A2E219B593B4200D12D2102A86E
:1081D0000EF03FFD0134E1E70024029D124EA300A2
:1081E0002900F0580EF0C5FD002813D1019B242171
:1081F000E41A200009F064F90C4B002C08DA5B1833
:108200000533DC7F02A80EF0CEFC200009B0F0BDE3
:108210005C5CF7E70134242CE1D10024F2E7C0468E
:10822000EA7E020084790200042000201021002050
:10823000F0B50500002489B007910592059B242123
:10824000181909F03DF9244B03915A5C07998A42A9
:108250003CD12A00E75C214BA600F618059B44326E
:10826000E01A2421049209F02BF9009132683B00B6
:108270001B4904980EF00EFA2E00039B771B9B00FF
:108280000693069A154BD0580EF07DFDB8421DD9C5
:108290001F2201213A4091407B09EA6A9B009A58CB
:1082A00004980A40531E9A410E490EF0F3F9069ABB
:1082B0000A4BD358DA5DAB6A2E2A05D12D3A013329
:1082C0003272AB620136D8E70022F8E70134242C81
:1082D000B4D109B0F0BDC046102100200420002018
:1082E000947902008479020010B50400034B036006
:1082F00040300BF063FB200010BDC0460C6F020045
:10830000F8B5224D280002F0D3FF00283DD0204BC5
:108310001B78002B39D11F4B5B68002B02D11E4804
:108320000CF0F6F9E62001F0B1F8280002F0C0FFE9
:1083300000282AD001260024184B194F1E70194B13
:10834000F0203C701C7001F0A1F8280002F0B0FF92
:10835000A0421AD0114B14481C70124B3E701C7076
:1083600001F094F8280002F0A3FFA0420DD00B4BBF
:108370003C701C700B4B1E700C4B1E70044B1C7021
:10838000280002F095FF0028FAD1F8BD90250020C2
:1083900025290020D42100200423002024290020A6
:1083A000222900202629002012020000272900206F
:1083B000F8B5204D28000BF0A4FD002839D01E4B45
:1083C0005B68002B02D11D480CF0A2F94C2001F093
:1083D0005DF828000BF095FD00282AD00126002426
:1083E000174B184F1E70184BF0201E70174B3C7027
:1083F0001C7001F04BF828000BF083FDA04218D050
:10840000114B13481C70114B3E701C7001F03EF86C
:1084100028000BF076FDA0420BD00B4B3C701C707B
:108420000A4B1E700B4B1E7028000BF06AFD0028D3
:10843000FAD1F8BD84210020D4210020042300209B
:108440002529002022290020242900202629002077
:108450001202000027290020F0B55F4887B00BF01A
:1084600050FD002804D15D4B1B78002B00D1B0E0FB
:108470000027EE265A4B5B4D1F705B4B28001F7088
:108480000CF046F9594B5A4C1B78B600BB421CD035
:1084900039002000FFF774FE564B1870A3592000D6
:1084A0005942FFF76DFEA259010020702000FFF72E
:1084B000BFFE00266368B3420DDDA3191A7A4E4948
:1084C0004E480EF0E7F80136F4E7A1592000FFF717
:1084D00057FE2070EDE7217800294FD148494748E1
:1084E0000EF0D8F80522474B110004A80BF058FBFA
:1084F00004A905A80BF02DFB0123FA220193013BEF
:10850000FF3B00930533FF33520005A9280002F01A
:10851000C9FB05A80BF010FB04A80BF00DFB334BB7
:10852000334C1B78002B4CD008235B421B1B364E70
:108530000393039BA26A9B19344D934230DA33783C
:10854000334A002B01D00123324A33492B480EF025
:10855000A1F8377801212800002F1AD002F072FE0E
:10856000A520400000F092FF0021280002F06AFEE2
:10857000FA20400000F08AFF0136DAE71B4B1B7837
:10858000002B01D01B4B19786422280002F0E6FA78
:10859000C5E702F057FE214800F078FF3900E4E714
:1085A0000121280002F04EFE1D4800F06FFF00215F
:1085B000280002F047FEFA20400000F067FF002389
:1085C000A3620023084A63601370E36A6363236B4A
:1085D000A36307B0F0BDC046AC21002027290020CE
:1085E00028290020042300202929002025290020F3
:1085F000D421002023290020287A020018220020FC
:108600003A7A0200537A0200DC21002090250020F3
:10861000207A0200247A0200457A02003A02000021
:108620004C040000F0B59DB0079204930292836859
:10863000026907000E000691934252D01F21C268C2
:10864000541CE5170D402D196D117A49AD005D19C7
:108650000C4004D52021013C49420C430134002C3C
:1086600001DA2034043D02990AA8099108A9089664
:108670000A930B920AF04CFF0190019B002B21DD25
:10868000002C1CD0013C0123A3401B930B9B1A958B
:108690005A1E0B92002B04D11F330B930A9B043BF1
:1086A0000A9301230B9A18A993400A9A1AA81993BE
:1086B00018920AF016FF019B013B0193DDE7043D90
:1086C0001F24E0E70123029A049993401AA81A96FE
:1086D0001B930AF0FBFE380008300AF00DFF1DB0B6
:1086E000F0BD0AF030FF544DA84202D153480EF0BD
:1086F00051FA38000AF027FF040038000AF023FF7F
:10870000002800D10130241838000AF01CFF8442F0
:1087100001D3AC4200D9484C1F346409A3001800AF
:1087200003930EF025FA39680190741A8E4202D034
:1087300022000EF0D5FA0023029A0CA90F92019A9A
:108740000EA8141910940C960D930E9611930AF01E
:10875000DFFE01250400002C1DDD119B1AA80593E6
:108760002B00059A013C93401B930D9B109A059397
:108770002B001A92059A93400C9A116819404B1ECF
:108780009941C9B20AF0A2FE0CA80AF0B5FE10A8E1
:108790000AF0B2FEDFE7082210A90AA80EF097FA45
:1087A0000A9C0AA80B9D0AF0A7FE1A940124230034
:1087B000AB4004991AA81B930AF088FE029B12A9E9
:1087C0001393BB6814A81493FB68129615930A9B25
:1087D00016930B9B17930AF09BFE0500169B179EA2
:1087E0000293002D17DD1A932300B3401B93139BB4
:1087F00018A902932300029A1AA89340129A199377
:1088000018920AF06EFE12A80AF076FE16A80AF078
:1088100073FE013DE2E738000AF084FE019A039BF3
:10882000944663443B6100237B60029B3A60BB60DB
:10883000FE6054E71F000080E0FFFF7F6C7A0200BB
:10884000F8B52A4B2A4D1C782A4F002C19D001214B
:1088500029480AF087FE294A294C5368294E0133DA
:10886000536031782278FF23274801F0BFF823783E
:108870001E4A013323700023337013702B703B703A
:10888000F8BD2B78002B1ED021001B480AF06AFE91
:108890001A4A1B4E53682100013353601A4832783C
:1088A000FF2301F0A3F8FF2332780121164801F0DD
:1088B0009DF833782C7001333370124B3C701C7070
:1088C0000A4B1C70DCE73A78002AD9D00C4A2B708E
:1088D00013700C4A3B7013700C4A13700C4A1370DF
:1088E000064BDA6A5A631A6B9A63C9E72429002097
:1088F000222900202629002000220020D421002047
:108900002929002028290020782300202729002059
:1089100025290020F7B52B4800F09EF92A492B485D
:108920000DF0B8FE2A4901A800F0E2FF294E3222DC
:1089300001A9300002F090F9EE2501A80BF03EF8F5
:10894000AD0025480BF0DDFA244C00281FD1244F40
:1089500038000BF0D6FA002807D063590133635171
:1089600038000BF0CEFA0028FAD16359232B01DD31
:1089700000236351615901A80BF03DF8642201A95D
:10898000300002F03FF901A80BF018F8D9E763684E
:10899000144A052B02DC1378052B09D90023137028
:1089A0006360E36A30006363236BA3630BF0B0FE84
:1089B000FFF7A6FCFFF7FCFCFFF74EFDFFF740FFBB
:1089C000E5E7C04614220020887A02001822002021
:1089D000927A020004230020AC210020D421002040
:1089E0008421002029290020F7B5012300241B4DF4
:1089F0001A0000941121280001F088FB184E194F2D
:108A00003200390028000EF0A0F8174D0123009421
:108A100002221A21280001F079FB320039002800D7
:108A20000EF093F8114D0F2301220921280002F0C6
:108A3000BDFB32000E4928000EF087F80D4D0E48A0
:108A4000EC622C636C63AC63EC6300F04DF83200B5
:108A500028000A490EF079F8F7BDC04684210020AD
:108A600000200020F5A00100AC210020902500206E
:108A7000B9340200D421002014220020818A010090
:108A8000DA23184A9B0010B5C2501C330400C018EA
:108A90000AF094FFE0239B00E0180AF08FFF20000B
:108AA000D130FF3001F026FB2000A930FF3001F06B
:108AB00021FB20003130FF3001F0A2FE20001130F8
:108AC000FF3002F05DFA2000A43007F051FD2000D5
:108AD0004430FFF709FC20002C300AF023FD200071
:108AE00010BDC046987302001423F0B5040093B083
:108AF000009319221821043002F0DAFC220025002C
:108B000026006432B435132110001092B83607F0F5
:108B10003BFD28000CF05CF900221E2130000BF018
:108B2000FCFD2000D03002F04BFA2200F03211920E
:108B30000621464A119801F087FE200000270123F4
:108B400069301A0000971121FF3001F0DFFA200090
:108B500091300097012302221A21FF3001F0D6FA4A
:108B60002000B9301A2301210222FF3002F0E6FA78
:108B7000300001F0D7F8E4225200A050300001F09C
:108B800021FBE6235B00E0500100E42220005200BC
:108B9000D130119BA2580095FF3001F065FD2000F7
:108BA000E13029001C22FF3002F01AFE19232000B8
:108BB0000F93013B0E93013B0D93013B0C93013B43
:108BC0000B93013B0A93013B0993013B0893013B43
:108BD0000793013B0693013B0593013B0493013B43
:108BE0000393013B0293013B0193F930013B0822BF
:108BF00000930721013BFF300BF0B0FDCA239B001F
:108C0000E018290003F002FED3239B00E0181D2189
:108C100002F09AFBDD239B00E75010982770032198
:108C20000DF05DFC23002200200009499C33A03296
:108C30001C6011605760074A80305A61022101228E
:108C400008F046F9200013B0F0BDC046146F0200D2
:108C5000C5350200AF3502000123F0B506788FB0AC
:108C600004001E4000D082E00300D03318000393BC
:108C700000F0EEFA00F0E6F928200DF079FF05008B
:108C800010300AF02CFF6C4B18202B600DF070FF99
:108C900007006A4B0460082231000C300C930D96DB
:108CA0000EF031F80CA9381D08220EF010F8644BB4
:108CB000AF607B611223EE60AB802E626E62290092
:108CC000039802F0F1F8002805D028000AF02CFEE5
:108CD00028000DF045FF012322785A4913432370E1
:108CE0002300B433180005930CF078F8564904902B
:108CF00005980CF073F800250690642000F0C6FB80
:108D00002F002E0023006933FF33180007930BF068
:108D1000F8F800282DD1049B002B33D1069B002BA3
:108D200030D1DD2549494A48AD0000F08FFC635938
:108D3000002B1CD100F09AF801000AA800F0D8FD21
:108D40000BA80AF0B2FCCA239B00E018069B0BAAF2
:108D50000AA90093039B03F0AFFD0BA80AF02EFEB7
:108D60000AA80AF02BFECC239B00E35863510FB0F6
:108D7000F0BD20009130FF300BF0C3F80028CAD0BE
:108D8000182EC8DC2000653039B22AB2FF23FF302C
:108D9000013700F02BFEFFB2322000F077FB0136E6
:108DA000052F02D100270135EDB2049B192E06D004
:108DB000002BA7D02349059802F0A6FC01E0002B68
:108DC000F8D104980DF0CCFE06980DF0C9FE1F49AD
:108DD0001F4800F03BFCCA239B00E3180893DD23E7
:108DE0009B00E3580993002B1ED100F03FF80100CF
:108DF0000AA800F07DFD0BA80AF057FC01230BAA7E
:108E00000AA900930898039B03F056FD0BA80AF0EB
:108E1000D5FD0AA80AF0D2FDCC239B00E3580993A4
:108E2000DD23099A9B00E2502100079AF03108984F
:108E300003F03CFF66E7C046FD0300003736020042
:108E4000F7350200D77A0200E27A02000020002003
:108E5000001C0020BFF34F8F024B034ADA60BFF3C0
:108E60004F8FFEE700ED00E00400FA05F0B58DB08D
:108E700005AF1922154938000DF029FF0022144BC7
:108E800005245A7180225205566E01222500019454
:108E9000029203930199300008F028FA0800029921
:108EA00008F09EF9019B03996B430193029B361ACC
:108EB0006B430293631E2C1B6C433C19225C1C1EEB
:108EC000CA54E7D108000DB0F0BDC046F27A0200E6
:108ED0002A290020F0B597B018220021060010A81A
:108EE0000DF011FF132110A80DF07EFC032110A836
:108EF0000DF049FD4C4B1B68002B00D10133DBB258
:108F000002934A4A012300210BA807F01BFF484B9C
:108F10009E4200D9002672B6464B64211D68464B1E
:108F200030000793052408F0E5F960435030281815
:108F300008900A21300008F0DDF90A2108F0C0FA93
:108F4000614350316918099130000A2108F0B8FADC
:108F5000802361430024503169189B010A910193D9
:108F6000029B002B5DD0002500272E1F07AB9B190D
:108F70000593032C03D1802300249B01019307ABAD
:108F80005B592E4A03936300D318049300231900FE
:108F900006205843049A16187678B4466246039E13
:108FA000B25C10269446049A105C62460641164252
:108FB00002D00120984001430133092BE8D1C94375
:108FC0001F4B059A090119401268039B934225D152
:108FD000312F23DC00210BA80DF096FDFA23159A02
:108FE0001199DB00106801421BD0013B002BF9D125
:108FF000019B01345B000193FA230137E4B25B006B
:109000009F42B6D10435102DAED1074B1B68002B03
:10901000A6D0029F013FFBB20293A1E7019B194337
:10902000D9E7FFF717FFC046A4250020F0FF000096
:10903000E703000094200020417B02000B7B02002C
:10904000F01F0000F8B50023124C23600AF04EFB1D
:10905000002808D0042120000AF044FB002801D099
:109060000D4B2360F8BD0122A12704250B4B0C49B1
:109070001A602268FF0048604E68002EFCD0DE595E
:109080001202013D3243002DF5D1226001225A60C7
:10909000E8E7C046A0250020ED5EBC0B00D00040F4
:1090A000FCD00040F0B585B01F000AAB1B8806005D
:1090B000029115000393002F1BD028200DF058FDBE
:1090C0006B4604001989039BAAB200933B000AF087
:1090D00014FC336821005B6830009847002806D0F4
:1090E00020000AF021FC20000DF03AFD024805B0F6
:1090F000F0BD0248FBE7C04616FCFFFF17FCFFFF70
:109100000B4B70B51C68002C10D0656D00F0ACFBEB
:10911000A36C002901D1834206D820000AF019FB74
:10912000044920000AF003FB2C00ECE770BDC046A8
:10913000AC250020CC250020F0B593B007932A4B36
:1091400004AC1E68049005910692002E4AD0274B6D
:10915000258867881C6800230293002C2ED0636D3D
:1091600023480393A36C9AB2A36C1B0C99B285425B
:1091700014D12048824211D1002B01D0B9420BD129
:10918000029B002B08D120000AF0E3FA1A492000C4
:109190000AF0CDFA01230293039CDEE7002A01D0F6
:1091A0009542F9D1002B01D0B942F5D120000AF047
:1091B000D0FA114920000AF0BAFAEDE70F4BEB188C
:1091C000012B0FD910233A00009329000C4B08A85B
:1091D0000AF093FB336808A99B683000984708A8F9
:1091E0000AF0A2FB13B0F0BDA8250020D82500206E
:1091F000FE030000FF030000CC25002002FCFFFF5F
:109200003991010010B572B60B4B1C68002C08D0C8
:1092100020000AF09EFA0023E364084B2000E36379
:1092200010BD62B65C200DF0A3FC5C22002104009E
:109230000DF069FDEFE7C046D0250020004000207A
:10924000024B1878012318407047C046302900208F
:10925000F7B50600FFF7F4FF051E33D11A4C266060
:10926000FFF7D0FF194B1A4918600AF060FAFFF7B0
:10927000C9FF184B1860184B4363184B8363206871
:1092800000280ED0C027164E2A003300154900973B
:10929000FFF708FF009733002A0013492068FFF703
:1092A00001FF0C200DF064FC0023838083710F4BC1
:1092B00003600F4B836000F0EFFA01230D4A117831
:1092C0000B431370F7BDC046A8250020DC25002005
:1092D000CC250020D4250020FC3F002019380200B6
:1092E00039910100FF030000FE030000346F02000B
:1092F0000191010030290020F7B506000D0017008C
:109300000193002802D100242000FEBD0029FAD0DC
:10931000FFF778FF041EF6D0074B019A43630660FF
:1093200045608760054B002A00D0054BA3630549C3
:1093300020000AF0FCF9E7E7FC3F0020E3370200D9
:1093400001380200CC250020024B186843425841E6
:109350007047C046CC250020002310B504499C006E
:109360006258002A01D00133F9E76050100010BDA7
:10937000B4250020002310B5044A99008C5884427B
:1093800001D00133F9E70020885010BDB42500203A
:1093900010B50024084BA200D058002802D0036862
:1093A0005B6898470134062CF4D1044B1B68002BF2
:1093B00000D120BF10BDC046B4250020CC25002020
:1093C000F8B5FFF73DFF00281CD02A4D2C68E36C50
:1093D000DA0718D502273B43E364274B1E680423B2
:1093E000F26C30001343F364636BF3630AF0D7F954
:1093F0003000716C04F04FF82868C36C3B4201D018
:1094000004F083F8F8BD1D4F1D4E3A683168002AFC
:109410001ED129602A68914208D11B0706D52C600D
:10942000FFF7B6FF3B68002BFAD02B6029688C420F
:10943000E8D03368994214D1124B4B63124B8B63C3
:1094400020000AF0ACF92968626C4B6C20000DE03A
:10945000206DB84203D1606D002800D002002A6060
:10946000D8E79C42ECD1002210004B6C03F0D2FFF5
:10947000C8E7C046DC250020B0250020CC25002010
:10948000D4250020FC3F00201938020070B50500EB
:10949000FFF7D6FE002803D128000DF068FA70BD52
:1094A0000C4B1C68E36CDB0706D5FFF7ABFE0A4BE1
:1094B0001860002800D0040000F0D6F92D18A5642B
:1094C00020000AF046F9054920000AF030F9FFF7BC
:1094D00077FFE4E7DC250020B0250020AC25002044
:1094E000F0B51E4B1E4F1C683B6885B0060003910B
:1094F000002B30D0FFF7A4FE00282CD0E36CDB0754
:109500000ED5FFF77FFE174B051E186008D00AF036
:1095100020F9154928000AF00AF92C00FFF750FF3E
:10952000039B20001B043343A3640AF012F92000BC
:109530000E490AF0FCF80E4B0024F318012B07D952
:10954000C0230093039A0B4B31003868FFF7AAFD44
:10955000200005B0F0BD084CFAE7C046DC2500202D
:10956000A8250020B0250020CC250020D8250020EB
:1095700002FCFFFF3991010016FCFFFF10B5FFF759
:109580005FFE002809D0054C20680AF0E2F8044983
:1095900020680AF0CCF8FFF713FF10BDDC2500208F
:1095A000D0250020F7B507000D0000282ED0FFF7CA
:1095B00047FE00282CD00724164E3068C36C1C4090
:1095C00007D0154A290038000AF0DAF800242000F4
:1095D000FEBD03F082FF02213268D36C1940019175
:1095E00003D003218B43D364F1E701242343D364E5
:1095F0002800B8473268D36C1900A143D164019C9C
:109600005B07E4D528000AF0F3F8E0E7034CDEE757
:10961000034CDCE7DC250020F137020017FCFFFFDC
:1096200016FCFFFF020010B5014B12CB12C210BD99
:10963000E0250020034B1A68034B1A607E225A6013
:109640007047C04694200020E025002070B5114EE0
:109650003278022A1AD081421AD90C1A072C17D94B
:109660000D00032305432B4012D172B60A4DD200E0
:109670005051AA1851608022A408120614430460B5
:1096800032780132327062B6180070BD0348FCE7D0
:109690000348FAE732290020E825002013FCFFFFE9
:1096A00017FCFFFF70B5134C06002378124D002BFA
:1096B0000CD1124912482B70FFF7C8FF114B98428A
:1096C00002D11E20FFF706FC0123237000242B7813
:1096D000A34209DD0C49E300C91830000AF0A2F8E2
:1096E000002805D10134F2E71420FFF7F3FB002036
:1096F00070BDC046312900203229002000380020EA
:10970000002A002017FCFFFFE825002070B5002884
:1097100019D0104B10491C7800239C4216DDDA004A
:109720005558854210D28A18526882420CD9041FBB
:109730002368002B02DC1E20FFF7CCFB802322686D
:109740001B061343236070BD0133E6E71E20FFF7BD
:10975000C1FBF8E732290020E825002070B5051E7E
:1097600014DD0B4E0B4C3368002B02D020680CF03C
:1097700033FFFA2120680024074B89008361C4620B
:10978000694335600CF030FF200070BD0348FCE7F2
:10979000F8250020282600204598010017FCFFFF2F
:1097A000F8B5114F06003D68002D0AD130200DF0AC
:1097B000DFF9040006F00CFF0C4BA5612360E562A5
:1097C0003C600B4D2B68002B09D110200DF0D0F917
:1097D00004000CF0CAFE20002C600CF0A0FE30004B
:1097E000FFF7BCFFF8BDC0462826002034770200F2
:1097F00024260020014B18687047C046F825002039
:1098000070B50D4C2368002B03D00C4B1B68002B4C
:1098100002D10620FFF7C4FF20680CF097FE02007B
:109820000749C3170D684E685219734120680A60D2
:109830004B600CF091FE70BD2426002028260020ED
:109840006021002010B5FFF7DBFF0024054BA200CC
:10985000D058002802D003681B68984701340A2CAE
:10986000F4D110BDFC25002010B5FFF7C9FFFA2286
:10987000034B920018685968002307F061FE10BD81
:109880006021002010B5FFF7BBFF024B1868596834
:1098900010BDC046602100200B4B10B51B680400B2
:1098A000002B03D0094B1B68002B02D10620FFF7C9
:1098B00077FF0023064A99008858002801D0013319
:1098C000F9E78C5010BDC046242600202826002031
:1098D000FC250020002310B5044A99008C588442CE
:1098E00001D00133F9E70020885010BDFC2500208D
:1098F00010B50400002902D00B78002B03D1034BD4
:109900002360200010BD0AF060F8FAE7446F0200FF
:10991000F8B504000E00150000290AD00B78002BC2
:1099200007D0002A05D0080097B20DF02CFA874224
:1099300003D90B4B23602000F8BD681DFFF7B2FE72
:1099400020600AF0E6F923682A005F80236831006E
:10995000181D0DF0BCF923685D1900232B71EAE78F
:10996000446F0200014B03607047C046446F020021
:1099700010B50548054C20600AF0CEF9044A0549A7
:1099800020000DF0E2F810BD446F02002C260020EC
:1099900000200020BD390200084B73B51C6805008B
:1099A000002C0AD0010026680831082268460DF014
:1099B0008EF90CCD31682000884773BD3026002019
:1099C000014B03607047C0464C6F020010B50400A5
:1099D000002903D1044B0360200010BD0160080082
:1099E0000AF09AF9F8E7C0464C6F020030B50068FB
:1099F0004488A1420CDA8588AA4209DA002907DBEB
:109A0000002A05DB5443401800198371002030BD43
:109A10000048FCE717FCFFFFF0B5070085B00E001B
:109A20001D00002921DD002A1FDD002B1DD0046848
:109A3000638803938B4200DD0391A38802939342D2
:109A400000DD0292002306340193019B029A9342A7
:109A50000EDA29002000039A0DF039F93B68AD19A0
:109A60005B88E418019B0133EEE7024805B0F0BDC6
:109A70000020FBE717FCFFFFF8B504000D001600FF
:109A80001F00002901DB002A02DA0E4B2360F8BD1B
:109A9000100048430630FFF705FE20600AF039F950
:109AA00023685D8023689E80002F06D03B00320033
:109AB00029002000FFF7B0FFE9E720000AF060F876
:109AC000E5E7C0464C6F0200F7B506000D1E03D156
:109AD000244B03603000FEBD00200F000400010095
:109AE00001903B78002B1AD03022524294469C447D
:109AF0006246092A11D90A2B0AD1019B2418013385
:109B00000193A14200DA2100002004000137E8E7B8
:109B10000028FBD001340020F8E70120F6E76A4670
:109B20000127928809B212B230007F42FFF7A4FFEA
:109B300039000A2033689A1D2C78002CCAD02300E3
:109B4000303B092B08D8FB43DB173B4043431B1931
:109B5000303B1F000135EFE7002FFBDB17700132B0
:109B60000F00F7E74C6F0200F0B5040089B006A8BB
:109B70000E0002921D00FFF755FD236802995A88D6
:109B8000914235DA9B889D4232DA1F2E30D9079BED
:109B900001939E422CDC0523002273430393069B12
:109BA0000493039B04999B18A03BCB5C0021059375
:109BB000AE18029BCF1823685888019087420EDAAE
:109BC0009888B0420BDDDB1910270F4101987043D4
:109BD0001B1805980740781E87417F429F7101310D
:109BE0000529E6D10132052ADBD1002009B0F0BDFC
:109BF0000048FBE717FCFFFFF7B504680700638820
:109C00000E1E01931EDD994218DA002306340093DC
:109C10003B68009A9B889A4212DA019BA1199D1B0E
:109C20002A0020000DF053F86019310009F08BFF75
:109C30003B685B88E418009B0133E8E709F0A0FF6C
:109C4000002000E00048FEBD17FCFFFF10B50548EE
:109C5000054C20600AF060F8044A054920000CF029
:109C600074FF10BD4C6F020034260020002000203D
:109C7000393B020010B5054C012120000AF040F8E4
:109C8000034A044920000CF060FF10BD3826002074
:109C900000200020BD3C02000388074A10B50120C7
:109CA000934208D0834202D00020DB0703D41E2059
:109CB000FFF710F9002010BDFFFF000000487047BB
:109CC00016FCFFFF10B53220FFF704F9004810BD65
:109CD00016FCFFFF10B5124C00230834828004608C
:109CE000416202241422010083718472036383861B
:109CF000028136310A78C360A243F1342240036105
:109D000043618361C36103620A70020040321370D1
:109D1000021DD387013343878387C38710BDC046A5
:109D20006C6F0200F0B5544F97B03B680600059386
:109D3000002B00D08BE006AC0B331C22212120002D
:109D400001F034FA0EAD0B231D2222210AA801F0E6
:109D50002DFA0B231B222321280001F027FA0820CB
:109D60000CF006FF0122059B110004900BF061FB33
:109D70003A2130000BF0B7F800281DD0A38812ADAF
:109D8000AB80A3795C20AB713C4B1293A368149316
:109D9000237B2B73637B6B73A37BAB730CF0E8FEAD
:109DA00004230193363300932A00049B31000400FE
:109DB00002F01AF83C604AE0322130000BF0C1F8A2
:109DC00000281CD0A38812ADAB80A3795C20AB71B6
:109DD0002A4B1293A3681493237B2B73637B6B73BF
:109DE000A37BAB730CF0C4FE042301932E330093CA
:109DF0002A00049B3100040002F094F9DAE73C21C8
:109E000030000BF059F800282CD0AB8812ACA3809E
:109E1000AB79A420A371194B1293AB6814932B7BDD
:109E200023736B7B6373AB7BA3730CF0A1FE0523E1
:109E300005000293013B0193383300932200049BF9
:109E4000310001F0EFFE0E4B3D6044351D600C4BC0
:109E5000094C1868002802D021680AF0C0F8206870
:109E600017B0F0BD44200CF083FE042204990400D6
:109E7000FFF730FF9EE7C0463C2600205C6F0200E3
:109E800040260020F0B56149C56885B08D4254DA9E
:109E90000300022236331B78134059D104698C42E7
:109EA00064DA020036321278520768D442690192AD
:109EB0000200019E40328E426FDA0100363109788D
:109EC000090774D4002B7DD113780293002B16D090
:109ED00006000127011DCB8F363601339BB2CB879D
:109EE00003963678BC46374000D188E01D2B06D952
:109EF00063469E43039B1E700023CB87137009F0BB
:109F00004EFF434A0723904276D94249043B8D4293
:109F100072DBC8220133920095426DDC023B8C4219
:109F20006ADB013B944267DC01980433884263DBBF
:109F30000133904260DC00235EE0C822002352001F
:109F40009542ABDD030036331A7800239207A5D47F
:109F5000012306001F00363632785408A7433C0020
:109F600002279C40BA432243327097E7C82252002E
:109F700094429BDD020036321278520796D40600D6
:109F80000122363633789F08BA4397000422934360
:109F90001A003A433270012388E7C821019E490024
:109FA0008E428FDD01003631097809078AD401001D
:109FB000012636310B78DF08BE430827F600BB4385
:109FC00033430B701378032B00D97DE70133DBB2E9
:109FD0001370012B03D10021031DD98774E7042BD3
:109FE00000D071E7020036321178033B0B43137047
:109FF00000230430C3870B33180005B0F0BD092BD4
:10A0000000D87CE7029BCF87013B77E770FEFFFF1C
:10A01000FF700200E0FCFFFF70B5C369C1681A68F9
:10A02000451D8AB00400EB7F114255D0002B58D15A
:10A03000EB7F082B0DD90122A379134209D11343D9
:10A04000A371A188130006A809F053FDFFF70CFCCB
:10A050002062EB7F012B23D80123A2791A421FD063
:10A060000025A188A571022202A809F042FDA31DC6
:10A07000DE7F012E14D1FFF7F7FB2B00226A801A36
:10A08000994100900191019BA188AB4203D1174BEC
:10A09000009A9A4227D90123042206A809F029FD33
:10A0A0000322A3791340012B14D1FFF7DDFB00231A
:10A0B000226A801A9941994202D10D4B984209D9DE
:10A0C0000223A279A1881343A3710522012306A8C4
:10A0D00009F00FFD0AB070BD0B2BA9D80133EB7747
:10A0E000A6E7013BFBE733000322D6E7E7030000C6
:10A0F000DB05000010B50400034B08330360FFF7D5
:10A10000E9FB200010BDC046A06F0200F0B50700BB
:10A1100000250E0085B002930AAB1B780837039325
:10A12000104B04000833036001928580857129007B
:10A13000182238000CF0E7FD039A310038000CF0CB
:10A1400058FB6B466A469B88127AA380A31DE67172
:10A15000DA77631D25622000DD77FFF79DFB200085
:10A1600005B0F0BDA06F02000048704716FCFFFF6D
:10A1700010B53320FEF7AEFE004810BD16FCFFFF01
:10A18000002310B50400838083710D4821640830DA
:10A1900020608020C000A061E0612062E3602000B8
:10A1A000236163616362A362E36223636363A36306
:10A1B000E3636364110009F0EAFE200010BDC046AD
:10A1C000B86F0200F0B5534F97B03B680600059397
:10A1D000002B00D08BE00B331C22212106A80AACF7
:10A1E00000F0E4FF0EAD0B231D222221200000F021
:10A1F000DDFF0B231B222321280000F0D7FF0820BE
:10A200000CF0B6FC0122059B110004900BF011F933
:10A210001D2130000AF07EFE00281DD0A38812AD5B
:10A22000AB80A3796020AB713B4B1293A36814936E
:10A23000237B2B73637B6B73A37BAB730CF098FC5A
:10A2400005230193183300932A00049B3100040076
:10A2500001F09EFE3C604AE03C2130000AF088FE9E
:10A2600000281CD0A38812ADAB80A3796020AB710D
:10A27000294B1293A3681493237B2B73637B6B731B
:10A28000A37BAB730CF074FC05230193373300936D
:10A290002A00049B3100040001F0E6FFDAE73C21CC
:10A2A00030000AF009FE00282AD0AB8812ACA38047
:10A2B000AB79A420A371184B1293AB6814932B7B3A
:10A2C00023736B7B6373AB7BA3730CF051FC05238F
:10A2D00005000293013B0193383300932200049B55
:10A2E000310001F09FFC0D4B1D6044353D600B4B70
:10A2F000084A1B681068002B00D0436417B0F0BDFB
:10A3000048200CF035FC052204990400FFF738FFC3
:10A31000A0E7C046402600205C6F02003C260020DB
:10A3200082B0F0B50400EDB06420739372920CF02B
:10A330001EFB052210A8110009F02BFC974911A85B
:10A34000FFF7C2FB002221AB6CA91A605A609A6029
:10A350000C339942F9D11922002113A80CF0D3FC37
:10A36000A0680AF0D3F900260B90FF21A06800F046
:10A3700001FD8B4FA06800F05FFB07960996884BA4
:10A380009F4203D0874B9F4200DBFDE0A0680AF0AC
:10A39000BFF9A56884491AA8FFF7AAFA78221AA972
:10A3A000280000F02FFC1AA809F008FB00267C4FBB
:10A3B0000322099B606801331A40099209F087FD66
:10A3C0000500606809F08AFD0022784B05929D42E5
:10A3D00010DB013205922A00C8320BDBAA220421CD
:10A3E00092000591954205DC02220592C82D01DDFF
:10A3F0000132059200220692984210DB0123069357
:10A400000300C8330BDBAA2304329B000692984258
:10A4100005DC02230693C82801DD0133069310A84A
:10A4200009F0AEFB002513ABEB5C012B08D16049B2
:10A430006B00CA185278C95C10A8FF23FFF7D6FA40
:10A440000135192DEFD16B4618229A5E6B4610A884
:10A450001421595E099BFFF7C9FA002F01DB0F2E6B
:10A4600007D90023A068009374301A0010A909F0DE
:10A470009DFB01230893089B05995A004C4B9B18A0
:10A480009A1E12788A4226D1013B1B78069A934283
:10A4900021D1089A6CAB9B18663BFF3B0A931B7853
:10A4A000012B18D00C23079A216853431D0000226A
:10A4B0000CA809F096FD21AA2B0094460CAA63442F
:10A4C00023CA23C301220A9B01361A70079BF6B2E6
:10A4D0000133DBB20793089B013308931A2BCAD1CF
:10A4E00064200CF044FA079B643F3FB2182B00D85D
:10A4F00045E71A0021A91AA809F081FF6A461DAB99
:10A5000023CB23C21B6813601A991B9A1C9B2068DB
:10A5100009F04FFDE568002D0CD0264912A8FFF781
:10A52000E7F91C231AAA12A928000AF090FC12A825
:10A5300009F044FAA0680AF0EBF811A912A8A5687E
:10A5400009F007FB00221C4B009212A9019328007E
:10A55000130000F0D9FA12A809F0EEFAFA208000F0
:10A560000CF005FAA0680AF0D3F80B99A06800F087
:10A5700001FC11A809F0E0FA10A809F0DDFA6DB0AD
:10A58000F0BC08BC02B01847002F02D00F2E00D03C
:10A590000EE7A06800F050FA0AE7C046217D0200ED
:10A5A0008C3C0000D18AFFFF667D020058FDFFFF52
:10A5B000867D02007B7D0200DC050000F0B587B0DF
:10A5C00001930EAB1B88060003930D9B0D000093B7
:10A5D000019B02920C9F002B3DD0002F02D1009BCB
:10A5E000DB0738D528200CF0C3FA0400103009F03E
:10A5F00076FA6B461B891820258063800CF0B8FA28
:10A600000500009B08220593019B002103600C308C
:10A6100004970CF078FB082204A9281D0CF057FBC6
:10A620000E4B02226B6100230399E3602362636295
:10A6300033680A43A560A2805B6821003000984718
:10A64000002806D0200009F06FF920000CF088FAED
:10A65000034807B0F0BD0348FBE7C04623400200B3
:10A6600016FCFFFF17FCFFFF70B58CB08360109BDA
:10A6700001604260C3600400184918000AF0AEFB94
:10A68000051E14D001001C22103105A80CF01FFB80
:10A690006A4608AB43CB43C21B6813602068059928
:10A6A000069A079B09F085FC28000CF059FA0C4B20
:10A6B000186800280ED00B4A05AB059200220692BE
:10A6C000C03202926A4622CB22C223000322052115
:10A6D000FFF774FF20000CB070BDC0467B7D020008
:10A6E0003026002021A30100F0B5040085B0637A74
:10A6F0009C46002B04D1200009F09FFE05B0F0BD60
:10A70000A37A266F01931023019AF35600259B1814
:10A7100001229A402900F36803920293029BAB4204
:10A7200031DDB368019A6B439B1872695B00E77A6D
:10A73000D3181A785878E379012F14D15F1E3F1A85
:10A7400010003A005B004343606F8218D3189B7976
:10A75000634500DD6346627B1A4202D00123AB40B1
:10A7600019430135DAE7022F05D15F1EBA1A277A9D
:10A77000013F381AE6E7032FE4D1277A013FBF1AD9
:10A7800002003800DEE71123C943F356606C99409C
:10A7900023691940039B19430CF0B6F9A27B072AE1
:10A7A000ACD8637B0C495B006373531CDBB2900035
:10A7B0004158A373022A03D808000CF0CDF896E79D
:10A7C000064B2000236300236363054BE46223648C
:10A7D00014300BF009FF91E7E46F0200E9A60100D5
:10A7E0002544020010B50400044B03600BF0F4FE96
:10A7F000200005F003FF200010BDC04634770200A2
:10A8000010B504000E4B08330360FFF763F8200017
:10A81000743009F091F92000603009F08DF92000C2
:10A82000583009F0CBF82000503009F0C7F820006C
:10A83000044B14306361FFF7D5FF200010BDC04604
:10A840000470020068770200F8B500250400324B5E
:10A850008580083303608571143016000F0005F001
:10A86000B7FE20002D4BE562636125645030FFF791
:10A8700079F820005830FFF775F820006030FFF7B6
:10A880009FF820000423F25E33682667590009B25E
:10A89000743009F07EF93368226FE3717368012622
:10A8A000237210236581A7802561D35691685918BA
:10A8B000994204DD3000984001330543F8E7112345
:10A8C0000120D356D1685918994206DD02009A40FA
:10A8D0002669013332432261F6E714200CF048F96F
:10A8E000226900212A430123060006F02BFAFF23E8
:10A8F000220063720133A381002348326664A3738C
:10A9000020001370A366FEF7C7FF0123A279200081
:10A910001343A371F8BDC0460470020068770200BB
:10A92000F0B5437A85B00400002B04D1200009F073
:10A9300084FD05B0F0BD0122837A11009C461023EE
:10A94000066F0025F3560392634499400291290053
:10A95000F3680193019BAB422CDDB36872696B43D2
:10A9600063445B00E77AD3181A785878E379012FAB
:10A9700010D15F1E3F1A10003A005B004343606F26
:10A980008218D3189B79002B02D0039BAB4019434C
:10A990000135DFE7022F05D15F1EBA1A277A013F82
:10A9A000381AEAE7032FE8D1277A013FBF1A0200DD
:10A9B0003800E2E71123C943F356606C99402369DC
:10A9C0001940029B19430CF09FF8667AB31EDBB264
:10A9D000FC2B14D8FEF70EFF0B4B0500236300235E
:10A9E0000A4863630A4BFF21E4622364704306F064
:10A9F00081FC29004143200014300BF0F5FD637AFF
:10AA0000012B00D995E791E73B440200B603000013
:10AA1000254402001FB5012381881A00684609F009
:10AA200068F8012303491A00684609F062F805B086
:10AA300000BDC046FE0300001FB5030048331A786E
:10AA40000400002A0DD000221A70012381881A0008
:10AA5000684609F04EF8012304491A00684609F0D7
:10AA600048F82000743009F08BF81FBDFF03000088
:10AA700010B548300378002B06D00378012B03D0A3
:10AA80000121024808F0A4FE10BDC046FF030000EB
:10AA900010B501210400062008F09AFE064B9842EA
:10AAA00008D148342378002B04D02378012B01D01F
:10AAB00020BFF7E710BDC04616FCFFFF70B50600CB
:10AAC000141E19DB050048352B78002B02D02B789B
:10AAD000012B13D1002330001A007430FFF744F823
:10AAE000002C07D033004A331C80002407234C3647
:10AAF00034802B70200070BD014CFBE7014CF9E75E
:10AB000017FCFFFF12FCFFFF73B5079C0500002C2C
:10AB10001CDB060048363078002802D03078012847
:10AB200016D106981BB2C0B20090280012B2743041
:10AB300009F03CF8002C07D02B004A331C8000247D
:10AB400007234C352C803370200076BD014CFBE789
:10AB5000014CF9E717FCFFFF12FCFFFFF8B50600F8
:10AB60000F00141E14DBFFF783FF330048331D78FA
:10AB7000EDB2002D0ED1220039003000FFF79EFF0C
:10AB8000002C03D03000FFF783FF2C002000F8BD1D
:10AB9000014CFBE7014CF9E717FCFFFF11FCFFFF3D
:10ABA000F0B587B00D9C06000F0002920393002CB5
:10ABB00020DBFFF75DFF330048331D78EDB2002D39
:10ABC0001AD1390005A808F0C4FF0C9B019400932A
:10ABD000029A039B05A93000FFF796FF05A808F02D
:10ABE000ABFF002C03D03000FFF752FF2C002000F9
:10ABF00007B0F0BD014CFAE7014CF8E717FCFFFF86
:10AC000011FCFFFFF8B50400171E1DDD06004836D5
:10AC10003378002B02D03378012B17D12200E3794F
:10AC20005632013B137023000025200054331D8051
:10AC3000503008F022FF23004A331F8002232800EF
:10AC40004C3425803370F8BD0148FCE70148FAE731
:10AC500017FCFFFF12FCFFFFF7B505000F00161EE3
:10AC600018DDFFF705FF2B0048331C78E4B2002CF9
:10AC700012D1390001A808F0F8FE320001A928001D
:10AC8000FFF7C0FF01A808F099FE2800FFF700FFBA
:10AC90002000FEBD0148FCE70148FAE717FCFFFF72
:10ACA00011FCFFFFF8B50400171E2DDD0600483625
:10ACB0003278002A02D03278012A27D15D42069BE1
:10ACC000FF331FD16B1D22001BB26432138023009F
:10ACD000200066331D70603008F043FF230000221F
:10ACE0006C331A70954200D03D0023004A331D801A
:10ACF000079B00205A1E9341013F4C3405332780A7
:10AD00003370F8BD069BDEE70148FAE70148F8E733
:10AD100017FCFFFF12FCFFFFF0B587B005000F0026
:10AD2000161E03931EDDFFF7A3FE2B0048331C788D
:10AD3000E4B2002C18D1390005A808F00AFF0D9BD9
:10AD4000320001930C9B05A900932800039BFFF799
:10AD5000A9FF05A808F0F0FE2800FFF799FE2000E3
:10AD600007B0F0BD0148FBE70148F9E717FCFFFF1A
:10AD700011FCFFFFFF2902D84172002070470148F3
:10AD8000FCE7C04617FCFFFF13B5040004A80078D9
:10AD9000009020000BF04EFC002801D1207516BD5C
:10ADA0000048FCE70EFCFFFF13B5040004A8007880
:10ADB000009020000BF026FC002801D1207516BD64
:10ADC0000048FCE70EFCFFFF7FB50D0011000F22CD
:10ADD0006A4404001E1E117016D0089B002B13DD60
:10ADE000012329000093FFF7DFFF002802D0074866
:10ADF00004B070BD0090089B320029002000FFF7CE
:10AE0000C3FF0028F4D0F2E70148F1E70EFCFFFF92
:10AE100017FCFFFFF7B507000D1E3FD000230226E9
:10AE200004690193002C35D0AA88A388534033428B
:10AE300004D1324204D1AB88334226D0646AF1E7B0
:10AE4000A968A0680AF0DAFA0028F4D02B88002B51
:10AE500002D022889A42F1D16B88002B02D06288FE
:10AE60009A42EBD1EB68E268934201D0002BE5D126
:10AE70007B68002B01D020009847A288084B134321
:10AE8000A380019B01330193D8E7A368AA6893428A
:10AE9000D4D1DBE7019B2000002B00DC0148FEBD84
:10AEA0000080FFFF17FCFFFFF0B5060085B00D1E08
:10AEB0005DD001270469002C26D00221AA88002336
:10AEC0000A4202D0A3885B083B40226829688A4274
:10AED00014D1A068A968002B0ED00AF08FFA0028C0
:10AEE0000CD0EB68E268934208D1A3881AB2002A1A
:10AEF00006DB204805B0F0BD8842F2D0646ADAE78C
:10AF00005B045B0CA380F4E730692A88002807D132
:10AF1000356101231849684608F0EBFD0020E9E798
:10AF2000010003001C88944206D25C6A1900002CC0
:10AF30000DD02300F6E723001C88944207D15F88D8
:10AF40006C88A74203D85C6A1900002CF3D18842B0
:10AF500009D10B889A4204D305D148886B8898425E
:10AF600001D96962D4E74B6A6B624D62D1E703484D
:10AF7000C0E7C04616FCFFFFFD03000017FCFFFF03
:10AF8000064B10B51A00040008322C3302608360AF
:10AF90000830FEF7EFF9200010BDC0461C7002001B
:10AFA00008B4024B9C46083808BC604781AF0100DA
:10AFB00008B4024B9C46083808BC6047834802002E
:10AFC0000C4A002311002C32083110B543608381F4
:10AFD00083738260036143618361C3830160040002
:10AFE0000830FEF7B9F9044B1A68002A00D11C603A
:10AFF000200010BD1C70020030260020F7B50E00A6
:10B00000012504690192002C36D0238832889A42A7
:10B0100001D0002B23D1638872889A4201D0002B83
:10B020001DD1FEF70DF90123002806D0C022A38808
:10B030001340C03B5A425341DBB2019A934219D1AB
:10B04000A7883BB2002B15DB10223100A0180BF0B3
:10B050003EFE40231F4204D0200009F01BFC646A1E
:10B06000D1E7FEF7EDF80028F6D021000348FEF7FF
:10B0700099FAF4E70025F2E72800FEBD95480200A2
:10B0800008B4024B9C46083808BC60471D4A0200C1
:10B09000F0B587B001930EAB1B88060003930D9BA0
:10B0A0000D000093019B02920C9F002B3DD0002FBE
:10B0B00002D1009BDB0738D528200BF059FD040096
:10B0C000103008F00CFD6B461B891820258063802A
:10B0D0000BF04EFD0500009B08220593019B00210B
:10B0E00003600C3004970BF00EFE082204A9281D03
:10B0F0000BF0EDFD0E4B02226B6100230399E36020
:10B100002362636233680A43A560A2805B68210002
:10B1100030009847002806D0200008F005FC2000E9
:10B120000BF01EFD034807B0F0BD0348FBE7C04627
:10B13000574A020016FCFFFF17FCFFFFF0B50400A2
:10B14000160000258380164A164B85710260218106
:10B1500046810573186889B08C46A8421DD0124AF2
:10B1600005950492C02202926A4604AB82CB82C249
:10B1700023002A006146FFF78BFFC022094B0A49D2
:10B18000186802926A46069106AB079582CB82C286
:10B1900023002A003100FFF77BFF200009B0F0BD3B
:10B1A0006070020030260020814B020030B5002480
:10B1B00003730123034D847105608180827343739F
:10B1C000846030BD5C6F020070B583790400DB07DA
:10B1D00002D580680BF0C4FCA3799B0702D5A06858
:10B1E0000BF0BEFCA3795B0707D5A0230021144A0E
:10B1F000DB00D150A0680BF0B3FCA3791B0708D586
:10B20000A568002D05D028000AF069F928000BF088
:10B21000A7FCA379DB0605D5A068002802D0036847
:10B22000DB6898476023A2791A4205D0A0680028FD
:10B2300002D003685B6898470023A360A37170BDC8
:10B2400000700040F7B50227037B04000D003B426D
:10B2500026D0012926D886793E40009614D1FFF7E2
:10B26000B3FF18200BF084FC0E230600E3561822CF
:10B27000009901930BF047FD019930000BF0CBFAD8
:10B28000A379A6603B43A371A3685A68002D04D03C
:10B290000025DB681A602800FEBD1B691A60FAE70A
:10B2A000014DF8E7014DF6E716FCFFFF17FCFFFF25
:10B2B000F7B50126037B040033422AD06123857948
:10B2C0001D4017D1FFF780FF18200BF051FC0E2313
:10B2D0000700E35618220093637B290001930BF0CB
:10B2E00012FD019A009938000BF083FAA379A76048
:10B2F0003343A3716023A279A0681A4202D00BF0F5
:10B30000E7F8FEBD436940681B681840431E98413A
:10B31000F7E70148F5E7C04616FCFFFF10B501242A
:10B32000837941731C4004D080680BF02CFB002013
:10B3300010BD6022134203D080680BF0D0F8F6E70E
:10B340000048F5E716FCFFFF70B5040000250C4B24
:10B350000E0008338580857103602100183009F0E4
:10B36000C0FC20002100203009F0DEFC054BA68047
:10B37000E5802572E5602561656120001C6070BD77
:10B3800070700200442600208379DB0702D5C1607B
:10B39000002070470048FCE716FCFFFF8379DB07BD
:10B3A00001D5C06870470148FCE7C04616FCFFFFA6
:10B3B00070B545690400002D22D0037A032B21D8F3
:10B3C000FFF7ECFFA8622C200BF0D2FB2C2200210F
:10B3D00005000BF098FC002263695A6223699342CE
:10B3E00008D1636923610020237A656101332372E8
:10B3F00070BD13005A6A002AFBD162695A62F2E7F3
:10B400000148F5E70148F3E717FCFFFF13FCFFFFD6
:10B41000144B70B55A68144C002A03D000225A60AD
:10B420000132A2601A69002A17D000211961802315
:10B43000DB000E4DE3582868012B0FD1A923DB0058
:10B44000E1584942FFF7A0FF2868FFF7B1FF2B68DA
:10B450005A69074BE2500123A36070BDFFF794FFC8
:10B46000F9E7C046FC1000400010004044260020D0
:10B470000405000003000069002809D00221054AE4
:10B48000D167426A1A611A7A013A1A72024B19603C
:10B490007047C04604E100E000E100E010B500297B
:10B4A00003DB024B19600BF054F910BD4826002055
:10B4B00070B504001E0004AB1D7805F0D1F8200023
:10B4C0000E4B40302360FEF74DFA230001364C331B
:10B4D000013522001E701D730023E1214E32A3644A
:10B4E0006365138053809381D381013B20006364A3
:10B4F0004902FFF7D3FF200070BDC0460C6F020069
:10B50000F7B580277F053D697C690822113C6C43B3
:10B510000600210068460BF0DAFB104B009A9A42B5
:10B5200019D00093002301937969300013396943DE
:10B5300009F00FFC019A0099300009F022FC21006B
:10B54000300009F006FC7969AB0813396943220021
:10B55000300009F008FC0198FEBDC046FECA00009C
:10B56000F0B50D00A9B00D9200213022060010A800
:10B570000B930BF0C8FB28000BF005FC431C0C934D
:10B58000102B00D9B5E00B9B202B00D9B1E029008E
:10B59000300009F023FC071E50D129000C9A10A896
:10B5A0000BF095FB0D990B9A14A80BF090FB8023E0
:10B5B0005B051A695F690C92113F7A4330005D693F
:10B5C0000B92FFF79DFF3022002104001CA80BF016
:10B5D0009AFB290000270C9B13395943300009F0CE
:10B5E000B8FB0D9730257D430B9B0833ED18A74220
:10B5F00042DA290030221CA80BF069FB10A91CA814
:10B600000BF0B7FB002827D13C49300022000E91F7
:10B610000F9409F0B6FB6A46099513AB23CB23C2FE
:10B6200023CB23C223CB23C23000129B1099119A43
:10B6300009F0B5FB01230D930137D3E710300B9AC6
:10B640000D990BF035FB040038000BF089FA002C43
:10B65000A3D1200029B0F0BD6A4609951FAB23CBCA
:10B6600023C223CB23C223CB23C230001C991D9AB3
:10B670001E9B09F094FBDFE7E5433023ED172540DF
:10B680005D430B9B08355D190D9B002B1DD10C9B59
:10B690003021981E05F0A4FDA0422CD0174901349A
:10B6A000300022000E910F9409F06BFB6A46099559
:10B6B00013AB23CB23C223CB23C223CB23C2300023
:10B6C0001099119A129B09F06AFB0B99300009F04E
:10B6D00040FB80235B0559690C230C9A13396343A3
:10B6E0004A430233110030000B9A09F03CFB00245E
:10B6F000AFE7034CADE7034CABE7C046FECA000022
:10B7000017FCFFFF13FCFFFF8023F0B55B051A69F0
:10B7100095B003925A6905910399113A51435D69B5
:10B72000039B133D040002915D43FFF7E9FE061EF3
:10B730003BD0002730220021083508A801950BF0E6
:10B74000E2FA0199200009F004FB049730237B43BF
:10B75000029D0835ED18B7421FDA2900302208A8EB
:10B760000BF0B5FA059908A80BF003FB00280AD1E5
:10B770001949721E20000691079209F002FB01236D
:10B7800004930137E2E70C23019A2900200009F015
:10B79000EAFA019B30330193F3E7049B002B06D1B7
:10B7A0000D493200200009F0ECFA0C4812E0029931
:10B7B000200009F0CEFA80235B0559690C23039A17
:10B7C00013394A437343110020000233029A09F0EF
:10B7D000CAFA002015B0F0BDFECA00000CFCFFFF45
:10B7E00070B50400A280FA22002308000C499200E0
:10B7F00008312160A3716061E260A360638209493E
:10B8000009F0ECFA051E09D00100200010310222D7
:10B8100012300BF05CFA28000BF0A2F9200070BD8A
:10B8200088700200B87D020030B50225837987B0A8
:10B8300004002B4204D1FDF78FFDA3791D43A571B0
:10B84000200009F015FB00281CD06B46DD1C2800E9
:10B8500009F005FB2B78002B17D001A809F0FDFAA1
:10B860000321019AD3170B409B189B102382FDF7ED
:10B87000FBFFE368A18818180123A0601A0002A842
:10B8800008F037F9002007B030BD0122064B1A60DE
:10B89000064A51680029FCD000215160044A126810
:10B8A000019201225A60DBE700C00040FCC000406A
:10B8B00008C50040022802D10122014B1A707047CE
:10B8C0003329002070B5064C05002378002B04D1E5
:10B8D000044802F005FB01232370280070BDC04618
:10B8E00034290020B5B8010070B50C0007F0FEFE49
:10B8F000002810D00023144DA40A2B70200009F05A
:10B90000CBFA002803D00A200BF031F8F6E72B78A9
:10B91000002BFCD070BD02210C4B0D4A99508021A8
:10B92000C90008005D58002DFCD0A121C9005C5061
:10B9300019580029FCD0002199508021C9005A587B
:10B94000002AFCD0E6E7C0463329002000E0014091
:10B9500004050000F8B50C0015001E0007F0C6FE37
:10B96000002811D00023174F3B703200290020001F
:10B9700009F090FA002803D00A200AF0F8FFF4E753
:10B980003B78002BFCD0F8BD01210F480F4B8446BB
:10B9900019508021C9005A58002AFCD08027002263
:10B9A000FF00964207DD910068586050D959002980
:10B9B000FCD00132F5E7002261465A50DA59002ADC
:10B9C000FCD0E0E7332900200405000000E001403E
:10B9D00008B4024B9C46443808BC60479D4E0200A8
:10B9E000FA21F8B50389C90004005943324809F027
:10B9F0001BFDFA21890005F0F3FB304F2081A17A6D
:10BA0000380009F011FD23002600250022894C335F
:10BA1000A072A0361A808C35317800232A2228683B
:10BA200008F083FE002801D02548F8BD31781F2397
:10BA30005B22286808F079FE0028F5D131782023B0
:10BA40005C22286808F071FE0028EDD131780123CE
:10BA50002C22286808F069FE0028E5D131780123FE
:10BA60002D22286808F061FE0028DDD131780123FD
:10BA70002E22286808F059FE0028D5D1A17A380076
:10BA800009F0CDFC3178C3B20E22286808F04DFED3
:10BA90000028C9D1FA21238989005943064809F0B1
:10BAA000BEFC01230343DBB231782A22286808F068
:10BAB0003CFE0028B9D0B7E7A8700200A0700200D1
:10BAC0000EFCFFFF08B4024B9C46443808BC60479C
:10BAD000E1B90100074B10B51A00040008323C33ED
:10BAE00002604364443008F020FA200008F050F966
:10BAF000200010BD0871020008B4024B9C46443877
:10BB000008BC6047D5BA010008B4024B9C464438D3
:10BB100008BC6047A74E0200F0B5042583798BB0BE
:10BB200004002B4204D1FDF717FCA3791D43A57136
:10BB300020009030FFF7BCFB0026B0420FD123005D
:10BB4000A033197820000C2307AD00938C302B0014
:10BB500001220068FFF738F9061E03D02C4E300092
:10BB60000BB0F0BD0A2304AA9B182A785A706A7891
:10BB70001A700022985EAA785A70EA781A70002229
:10BB8000995E03912A795A706A791A7000229F5E31
:10BB9000AA795A70EA791A7000215A5E04922A7AB8
:10BBA0005A706A7A1A7000215A5E0592AA7A5A70FF
:10BBB000EA7A1F251A7000229B5EA27A03999C469E
:10BBC000514349425043CB172B407A435B185B11DA
:10BBD000A361C3172B401818D3171D406423AD1859
:10BBE000059A5B425343A36764236146049A40115C
:10BBF0005A434B43E2676D11221DE061256220002C
:10BC0000D36708F037F92000443008F095F9A6E72B
:10BC10000EFCFFFF08B4024B9C46443808BC60474A
:10BC200019BB0100F7B51E00040008AB1B88150006
:10BC3000019309AB00911A8831000AAB1F88FEF707
:10BC400049F820003A0031004430FEF799FA134BCE
:10BC500020001A003C336364230008322260009AFB
:10BC60008C331A60AB8890308380AB796A468371DD
:10BC70000B4B92880360AB68032183602B7B0373BB
:10BC80006B7B4373AB7B83732300A0331A80FFF776
:10BC900045FB2000FFF7A4FE2000FEBD0871020056
:10BCA0005C6F0200F8B5FA260189B6000400714302
:10BCB000264809F0B9FB310005F092FA244F2081A3
:10BCC000A17A380009F0B0FB2500A0725835297818
:10BCD00000232A22606C08F028FD002801D01D48AE
:10BCE000F8BD297810232B22606C08F01EFD002877
:10BCF000F5D1297801232D22606C08F016FD00286B
:10BD0000EDD1297801232E22606C08F00EFD002869
:10BD1000E5D1A17A380009F082FB2978C3B20E225E
:10BD2000606C08F002FD0028D9D1218907487143D1
:10BD300009F075FB01230343DBB229782A22606CEA
:10BD400008F0F3FC0028CBD0C9E7C04670710200B0
:10BD5000687102000EFCFFFF10B50400034B0833AE
:10BD6000036008F015F8200010BDC046D071020035
:10BD70007FB50425837904002B4204D1FDF7ECFA4A
:10BD8000A3791D43A57120004830FFF791FA0025E3
:10BD9000A8420DD1230058331978062302AE009330
:10BDA00001223300606CFFF70FF8051E03D00D4D24
:10BDB000280004B070BD022300210420F356A27AAB
:10BDC000DB00715630565343C000C9005143424313
:10BDD0005B42A3612368E16122629B6A200098476D
:10BDE000E6E7C0460EFCFFFFF8B50400150006AA02
:10BDF000168807AA0F0012881900FDF76BFF0F4B7A
:10BE00006764083323602300AA8848339A80AA799C
:10BE100020009A710A4AA264AA6822652A7B1A73D2
:10BE20006A7B5A73AA7B9A730023A3712300583349
:10BE30001E80FFF737FF2000F8BDC046D07102001A
:10BE40005C6F020010B50400034B0833036008F078
:10BE50006CF8200010BDC04664720200F0B5070007
:10BE60005C3787B00400397800231022806C08F01A
:10BE70005CFC0326002802D01F4807B0F0BD0F2548
:10BE800002ABED180123397808220093A06C2B0037
:10BE9000FEF79AFF184B9842EED02B78334203D02E
:10BEA0006420FDF7F3FAEAE7FA262189134DB6007C
:10BEB0007143280009F0B8FA310005F091F92081AA
:10BEC0003978A0231122A06C08F02FFC0028D3D1D0
:10BED000A36C21890393714328003F7809F09FFAEE
:10BEE00001231843C3B210223900039808F01DFC47
:10BEF0000028C2D0C0E7C0460EFCFFFF047202005B
:10BF000070B50825837986B004002B4204D1FDF773
:10BF100023FAA3791D43A57120004C30FFF7C8F91F
:10BF2000061E0DD023005C331978062304AD009360
:10BF300001222B00A06CFEF747FF061E03D0134E14
:10BF4000300006B070BD0E232A786B445A706A78B0
:10BF500020001A700022995E64224A43A263AA78E4
:10BF60005A70EA781A700022995E64225242514354
:10BF70006163297959706979197000215B5E5A43B0
:10BF80002368E2631B6A9847DAE7C0460EFCFFFFAE
:10BF9000F8B50400150006AA168807AA0F00128833
:10BFA0001900FEF7EDF80D4BA7640833236023005A
:10BFB000AA884C339A80AA7920009A71084AE264D0
:10BFC000AA6862652A7B1A736A7B5A73AA7B1E82EF
:10BFD0009A73FFF743FF2000F8BDC0466472020069
:10BFE0005C6F0200F7B5FA250189204FAD0004000F
:10BFF0006943380009F018FA290005F0F1F8A17A30
:10C0000020811B4809F010FA2600636CA07200938F
:10C0100021895836337869433800019309F0FFF9D4
:10C0200007230343DBB220220199009808F07DFB2F
:10C03000002801D00F48FEBD317810232222606C09
:10C0400008F073FB0028F5D1A17A0948656C3778B0
:10C0500009F0E5F980235B420343DBB22322390078
:10C06000280008F062FB0028E5D0E3E798720200A0
:10C07000907202000EFCFFFF10B50400034B083362
:10C08000036007F085FE200010BDC0460873020063
:10C09000F0B50425837985B004002B4204D1FDF767
:10C0A0005BF9A3791D43A57120004830FFF700F923
:10C0B000061E0DD0230058331978062302AD0093D5
:10C0C000A8222B00606CFEF77FFE061E03D0144EE4
:10C0D000300005B0F0BD1F200023EA5ED3170340F7
:10C0E0009B180222A95E5B11CA1702405218042154
:10C0F0006F5E5211F9170140C91949112B806A80EE
:10C10000A980A07A4343424341435B42E3612368F1
:10C110005242A26121629B6A20009847D8E7C0463C
:10C120000EFCFFFFF8B50400150006AA168807AA42
:10C130000F0012881900FDF7CDFD0F4B676408331F
:10C1400023602300AA8848339A80AA7920009A7134
:10C150000A4AA264AA6822652A7B1A736A7B5A7308
:10C16000AA7B9A730023A371230058331E80FFF724
:10C1700039FF2000F8BDC046087302005C6F020062
:10C18000F7B5FA2504000189134EAD00694330006C
:10C1900009F04AF9290005F023F82700A36C208153
:10C1A00000935C373B7881B269433000019309F01A
:10C1B00036F96022C3B20199009808F0B6FA002857
:10C1C00001D00648FEBD397801236222A06C08F038
:10C1D000ACFA0028F6D0F4E73C7302000EFCFFFF37
:10C1E00010B50400034B0833036007F09EFE2000E7
:10C1F00010BDC046647302007FB508258379040032
:10C200002B4204D1FDF7A8F8A3791D43A5712000A6
:10C210004C30FFF74DF8051E0DD023005C33197824
:10C22000062302AE0093E8223300A06CFEF7CCFD9B
:10C23000051E03D00B4D280004B070BD0223F25E32
:10C2400096235B425A4362630021725E200053438F
:10C25000A3630423F25E96235343E36323681B6ABC
:10C260009847E8E70EFCFFFFF8B50400150006AAA2
:10C27000168807AA0F0012881900FDF781FF0D4BE1
:10C28000A764083323602300AA884C339A80AA79D4
:10C2900020009A71084AE264AA6862652A7B1A73D0
:10C2A0006A7B5A73AA7B1E829A73FFF769FF20008C
:10C2B000F8BDC046647302005C6F020010B5040054
:10C2C000054B083303601C3007F078FB2000183062
:10C2D00007F074FB200010BD90730200FF23F0B53F
:10C2E0002C4D8DB02B70002304006946008800930C
:10C2F00003F046FA002802D16B469B782B70264E3D
:10C300003368DB68002B07D1002320881A0019004E
:10C3100008F039FE0DB0F0BD2B78032BF4D81F497F
:10C3200001A8FDF7E5FA336801A9DE6804A807F063
:10C330009CFB04A9300008F084FD0027060004A837
:10C3400007F03CFBBE421ED031002022103104A871
:10C350000AF0BDFC30000AF003FC297804ABC900E8
:10C360005918082202A80AF0B2FC208801230822EA
:10C3700002A908F008FE0137002804D12088084AE5
:10C380000C2108F0FEFD01A807F018FB002FBBD020
:10C39000C0E7C04634210020582600204B7E020012
:10C3A000FFFF0000F0B5837991B004005B071BD557
:10C3B000FDF75AFA00232269801A9941994203D164
:10C3C000F423FF3398420FD9A068002808D0364BD9
:10C3D0001D8809F0A1F8036815221B6A29009847F7
:10C3E0000422A3799343A371A3799B0759D52F4DB9
:10C3F0002B68DB68002B50D02D4B1B78032B4CD8BF
:10C40000294B2C491B8804A80193FDF771FA2B686E
:10C4100004A9DE6808A807F028FB08A9300008F086
:10C4200010FD070008A807F0C9FA02AB9E1D0823FB
:10C430003200338006A9073B019808F0A6FD002FC3
:10C4400008D039002022103108A80AF040FC38003A
:10C450000AF086FB164B32881B7806A9DE0008AB73
:10C460009E1930000AF024FC002813D0082206A9E7
:10C4700030000AF02CFC2B6804A9DD6805A807F041
:10C48000F4FA202308AA05A9280008F0E0FC05A872
:10C4900007F094FA04A807F091FA0222A3799343D3
:10C4A000A37111B0F0BDC046D4280020582600204A
:10C4B000342100204B7E0200F7B5089E05001529A7
:10C4C00022D8012007008F40244C27421CD0E97F4E
:10C4D000CC181F2C41DC69183418A14210D8002157
:10C4E000C8B2834204D9545C701884700131F7E7F4
:10C4F00032789A183270EA7F9B18EB7700202CE094
:10C500000878C8540139E8E73478013CE4B2A34222
:10C5100008D10023D9B28C42F0D9D05CF1188870D0
:10C520000133F7E7EF7F0120FF183F1B1F2F14DCBB
:10C530000227A01C7F423618381B0190E87F2F1875
:10C54000BE4204D23078019FF0550136F6E7041B55
:10C55000023CEC77280008F062FDFEBDFC002000E4
:10C56000F0B585B001930AAB1E880BAB1B78451C58
:10C5700002930EAB1B78040003930B781700037033
:10C580004B8A10224382013128000AF0A0FB6B463F
:10C590009B88268363836B461B7B002623776B4631
:10C5A00001221B7A6761E683EB77A31CDA770C9B89
:10C5B0000C256362230020000D9A28331A705E70E8
:10C5C0009E702A0031002C300AF09DFB2000074BA2
:10C5D000E663A3632A00310040300AF094FB200098
:10C5E000034B2665E36405B0F0BDC046A14F0200D1
:10C5F000934F020070B50D0008F08EFF0400036831
:10C60000002D09D15B699847FA20800068430749EB
:10C6100004F0E6FDE08070BD9B6898478542F3D248
:10C62000236820009B6898470500EDE77102000031
:10C63000F0B507001600A1B002C704006B4918A8A6
:10C640001D0008F033FD331E03D030000AF09BFBC1
:10C6500083B20122049200220392029202320192DA
:10C660000093320018A93800FFF77AFF23006049D1
:10C67000583318A8079308F019FD2B1E03D0280083
:10C680000AF081FB83B201220492002203920292FB
:10C690000232019200932A0018A90798FFF760FF61
:10C6A00023005449AC3318A8089308F0FFFC269BDC
:10C6B000002B03D018000AF066FB83B2012204921B
:10C6C000002203920292023201920093269A18A944
:10C6D0000898FFF745FF631CFF33474918A80993E3
:10C6E00008F0E4FC279B002B03D018000AF04BFB5A
:10C6F00083B2012204920022601C03920292023251
:10C7000001920093279A18A9FF30FFF729FF230011
:10C710005533FF33394918A8099308F0C7FC289B03
:10C72000002B03D018000AF02EFB83B201220492E2
:10C73000002203920292023201920093289A18A9D1
:10C740000998FFF70DFF2300A933FF332C4918A8E0
:10C750000A9308F0ABFC299B002B03D018000AF0C9
:10C7600012FB83B201220492002218AD03920292BE
:10C77000023201920093299A29000A98FFF7F0FEED
:10C78000204B1B780B93002B2DD1079B12971393F3
:10C79000089B0DAF1493631CFF331593099B1A4933
:10C7A00016930A9B3800179308F080FC1D2149203E
:10C7B0003B7810222B707B8A12AE6B8206ABC918B5
:10C7C000C0180AF084FA06232B756B469B8D2068EF
:10C7D000AB83AE6108F0A4FE036829001B6898478C
:10C7E0000122084B1A70200021B0F0BD292A000058
:10C7F000242A0000252A0000272A0000262A0000FB
:10C80000282A0000352900200A18000070B50025EC
:10C8100004000B4B8580083385710360C1601830BC
:10C82000FDF7A0F820001C30FDF79CF80123621CE6
:10C83000D377044AA560656120001460A37170BDC0
:10C840009073020058260020FA2130B585B005000B
:10C85000012302228900684607F04BF9074C206843
:10C86000002809D008F05BFC2988054B2268198054
:10C87000022391790B43937105B030BD58260020F7
:10C88000D428002010B50C0007290DD8806808F0C6
:10C8900043FE064B195703685B6C9847431E98414B
:10C8A000034B4042184010BD0248FCE7437E0200A3
:10C8B00016FCFFFF17FCFFFFF0B5A44C0D00A544CC
:10C8C000040007939AAB1B78A14909A80493069228
:10C8D000FDF70EF8200029001C3007F0CEF8C0202C
:10C8E000800001F0F3FA08200AF042F90600002166
:10C8F00000F0AEFE15ADA66000210C220EA80AF0D5
:10C9000002FA2B000EAA83CA83C3924B2900EB6064
:10C91000002330002B6108F0E8FDA06808F0FCFD62
:10C9200008220021059016A80AF0EDF914200AF05B
:10C930001FF929000200884B1593C8C9C8C2874B4C
:10C94000059EC3600023A43603613368002B00D02A
:10C95000F5E03060A06808F0E3FD08220021060041
:10C9600016A80AF0D0F914200AF002F97C4B1593AE
:10C97000030086CD86C37B4BC36000230361336B0A
:10C98000002B00D0DDE03063A06808F0C5FD082270
:10C990000021050016A80AF0B6F914200AF0E8F8FC
:10C9A000714B15AE1593030086CE86C36F4B983539
:10C9B000C360002303612B68002B00D0C3E0286014
:10C9C000012504AB1B7C04AA2B4308A9280013747F
:10C9D00008F0DDFAA06808F0A7FD036864495B6A07
:10C9E0009847A06808F0A0FD036862499B699847D2
:10C9F000A06808F099FD0023026800931668049966
:10CA00002A00B047049B002B0AD0200008F090FBBE
:10CA1000032805DDA06808F087FD0368DB689847F8
:10CA20000EA808F0F3FA2F2004ABC01808F0EEFAB5
:10CA3000362004ABC01808F0E9FA3D20042504AB09
:10CA4000C01808F0E3FA0EAB0A93A06804AB5D7758
:10CA500008F06AFD03680AA91B699847A06808F0F6
:10CA60005BFD03680AA95B6D9847A06808F054FD58
:10CA700003680021DB6D9847A06808F04DFD03684E
:10CA800002219B6D984700212000FFF7FBFE182034
:10CA90000AF06EF8A16800F055FA374B374A1B6868
:10CAA000A1680393364B15A81B6800260293354BEB
:10CAB0000CAF1B680193069B1B685B190093324BFC
:10CAC00012681B68FFF7B4FD30200AF051F8079A8E
:10CAD000A16800F0F7FAA06808F01EFD03683900AD
:10CAE0009B6A9847294BBE80A0680C9308F014FD00
:10CAF00003683900DB6A98472900A06808F0E2FA69
:10CB0000099A09219378A068521908F0EEFAA068F2
:10CB100008F002FD32210671A068FFF76BFD04AB3F
:10CB20001B7FB34204D0A06808F0F6FC08F0B4FA0A
:10CB300009A806F043FF95239B009D44F0BD0361C7
:10CB400007E703611FE7036139E7C046ACFDFFFF5C
:10CB5000307F0200AF4F020049C80100BD4F020004
:10CB6000DDC20100CB4F0200F94F0200D94F020095
:10CB700091CB0100C5CB0100542600205026002097
:10CB8000982000204C2600209C2000200800100047
:10CB900013B506226846FCF7BBFE094B1C68002C47
:10CBA0000AD0694601A806F060FF200001A908F03C
:10CBB000E0FA01A806F002FF684606F0FFFE13BD8A
:10CBC00058260020002373B501AE0C00310005008B
:10CBD000019302F0D5FD002802D1B278064B1A70FD
:10CBE000064B1868002806D061426141044BC9B267
:10CBF0001D8008F0C6FA73BD34210020582600209D
:10CC0000D428002030B5284CA9B06A220D000DA808
:10CC100021000AF05CF80DA903A8FCF7D7FE03A9D0
:10CC200006A806F096FF01230193013BFF3B00930A
:10CC30000533FF33642206A92800FEF76DF806A825
:10CC400006F07AFF210019226A3106A80AF03FF89F
:10CC500005220024110006AB04A806F0A1FF04A9D8
:10CC600005A806F076FF019400942300220005A990
:10CC70002800FDF795FF05A806F05EFF21002800BB
:10CC8000FEF778F805340520FCF700FCFF2CF5D101
:10CC9000FA208000FCF7FAFB04A806F04DFF03A879
:10CCA00006F04AFF29B030BDC07D0200F0B59C4BB4
:10CCB00095B005921A68082304000391D16C06A868
:10CCC0000B43D3649749FCF713FE974907A8FCF779
:10CCD0000FFE220000250DAE30001C3206A906F022
:10CCE000DBFE07AA310008A806F0D6FE300006F0E9
:10CCF00065FE631CDD77A06808F00EFC03680BAFCF
:10CD00005B699847300008F081F92B2004ABC0180C
:10CD100008F07CF9322004ABC01808F077F939200C
:10CD200004ABC01808F072F98023DB00BB80A06858
:10CD30000B9608F0F1FB036839005B6D9847A0681B
:10CD400008F0EAFB036829009B6D9847A06808F08B
:10CD5000E3FB070006000A371F222900380009F00C
:10CD6000D2FFFD77300008F08EF90621A06808F0A8
:10CD7000A9F9089A09219378A068043208F0B5F956
:10CD8000A06808F0C9FBC8210571A068FFF732FC54
:10CD9000A06808F0C1FBFF272E000581A06808F0FD
:10CDA000BBFB08F079F90398FDF746FE2000FCF77D
:10CDB000D3FA03992000FFF725FF0399200008F01C
:10CDC000F3F90495012563691D402DD0574909A841
:10CDD000FCF77AFE09A90AA806F0BBFE00220AA900
:10CDE0001300019200920398FDF7DAFE0AA806F0FC
:10CDF000A3FE049B002B42D1043F282F41DD0025D8
:10CE0000FE2F00DC049D059807F07BF8002806D073
:10CE1000012362699A4313000422134363610026CD
:10CE200009A806F089FE049504226369134233D0F1
:10CE3000FF210398C826FDF79DFF0025B600A369D2
:10CE400002229B5EAB4222DD200029B2183006F0A0
:10CE500039FE0023010003981A007430FCF784FEA9
:10CE60003000FCF713FB039807F052FCC820FCF7D6
:10CE70000DFB02226369134209D10135DFE7043754
:10CE8000BBE7039807F044FC002FBCDDBAE7FA20AB
:10CE90008000FCF7FBFA0026022365691D421CD0C6
:10CEA00006331D4024D0224909A8FCF70DFE09A92C
:10CEB0000AA806F04EFE00220AA901920092130071
:10CEC0000398FDF76DFE0AA806F036FE1948FCF738
:10CED000DDFA09A806F030FE174E6420FCF7D6FAFA
:10CEE000164B01369E4200DC6CE706F011FC69E748
:10CEF000134909A8FCF7E8FD09A90AA806F029FECC
:10CF00002B002A000AA9019500950398FDF748FE19
:10CF10000AA806F011FE09A806F00EFEDDE7C046DD
:10CF2000DC250020577E0200677E0200697E020039
:10CF3000AE7E0200983A00008C0A00008B0A0000C6
:10CF4000EB7E02000022594BF0B508330600036067
:10CF50000F001000A9B0B1600BAB991801324870F6
:10CF6000102AFAD10F3A524C1A700E32105D991AEB
:10CF70000874013AFAD2997B5A7B09020A433100BC
:10CF80000C31039125211B7813AD2B7002ABC9180E
:10CF9000452302A81B186A821800102209F097FE88
:10CFA000039B64216B610123002402AA2B77521892
:10CFB0001993093313701DAB1C706D2302AA9B18C3
:10CFC0001C706E2321009B181EA80C22EC836C623F
:10CFD0001C7009F098FE374B0C22210023A8AB638C
:10CFE000EC6309F090FE344B02AAEB6446239B18D5
:10CFF0000322DA7722002C650595347306AD2B19D0
:10D0000001345A70102CFAD101232C482B700E33A6
:10D01000195CEA1A1174013BFAD211212520AA7B6E
:10D020006B7B12020BAC13432A78638202ABC918E4
:10D030002270C018102209F04AFE0123237505ABA7
:10D04000A36100233800A38308F06AFA0368210073
:10D050001B68984713ABDB8BB068B38208F060FAAB
:10D06000002203680092B18A039ADC680123A0477A
:10D07000B06808F055FA0700142009F079FD002285
:10D08000012304000261069240C008322900079380
:10D0900009F01DFE0A4BE360BB69002B03D1300091
:10D0A000BC6129B0F0BD2361F9E7C046A873020056
:10D0B000447F0200A14F0200934F0200547F020000
:10D0C00009520200F0B500260400724BDDB00833AF
:10D0D00003608160C2608680867132006E4947A815
:10D0E00008F032F923001433012504270893122392
:10D0F000009704950193089A330047A90396029676
:10D100001DA8FFF72DFA3200644947A808F01CF962
:10D110000C2322000097103215AF0495019347A904
:10D1200033000396029632A8FFF71AFA32005C49E0
:10D13000380008F009F921001C3109910423082165
:10D1400004950191009339003300099A03960296E1
:10D1500047A8FFF705FA32005249380008F0F4F802
:10D16000542009F005FD21001222042318310791F3
:10D170000495019200930A00330039000396029649
:10D180000690FFF7EDF9069A474B1000A262D462B1
:10D190000AA9082230300A930B9609F098FD434BF8
:10D1A000069A099993632932157026610422E66173
:10D1B000079809F08CFD04220799089809F087FD6B
:10D1C0006622032304A95218D377BA225218D377C0
:10D1D000872252005218D377069A35490232D37704
:10D1E0001DAA0C9232AA0D9247AA0E92069AA68503
:10D1F0000F9210A8320008F0A7F83021452004AAA9
:10D2000052181378123104AA3B705218138811393E
:10D210007B8204AB1022C918C01809F058FD042302
:10D220000CADA0683B75BD61BE8308F079F9036859
:10D2300039001B689847822204AB9B181B88543224
:10D24000238404AB9B181B885432A38404AB9B1823
:10D250001B88A068638408F063F90700142009F0B4
:10D2600087FC0500134B0661082210C010A910931B
:10D27000119609F02CFD104BEB60BB69B34206D14F
:10D28000BD612000FCF768F820005DB0F0BD2B61A7
:10D29000F6E7C046B4730200847F0200647F020098
:10D2A000747F0200947F02001B5302008752020029
:10D2B000A47F020025D30100B1520200F0B50400A2
:10D2C0000E00150085B01F000CAB1B8810300193B9
:10D2D00006F005FC26806580182009F049FC02AEA6
:10D2E000050033000AAA03CA03C32F6028000827D9
:10D2F00000213A000C3009F006FD3A003100281DEB
:10D3000009F0E5FC064B02226B6120000023019925
:10D31000A5600A43E360A2802362636205B0F0BDAA
:10D32000DB520200F0B50B898DB00593CB68050088
:10D3300004934B88828C9A420ED1049C049B059ADC
:10D340009B181B1B032B39DD62882188012308A849
:10D3500006F0CFFB0434F1E7428C9A422ED1049CB4
:10D36000049B059A9B181B1B032B27DD2388282071
:10D3700006936388EF680793114B08930023099382
:10D3800009F0F6FBC0236A460600029308AB03CB04
:10D3900003C22B000699079A3000FFF78FFF3B6806
:10D3A00031005B6838009847002805D0300006F04F
:10D3B000BBFA300009F0D4FB0434D1E70DB0F0BD66
:10D3C0009953020070B5040090B0806807F0DFFF49
:10D3D000022101401AD1A38D002B17D00C4B6A46B5
:10D3E00004931023E568A1850591029304AB41CB1A
:10D3F00041C20A00230006A8FFF760FF2B6806A9B8
:10D400009B682800984706A806F08EFA10B070BDF9
:10D4100099530200002815D0006041608260C3600B
:10D42000046145618661C761444604624C464462BA
:10D43000544684625C46C462644604636E46466336
:10D4400074468463002A06D0C46B043C043A256801
:10D450001560B442F9D18C6BA6464E6BB546002BD5
:10D4600006D0CC6B043C043B1D682560B442F9D166
:10D470000C6BA446CC6AA3468C6AA2464C6AA146B1
:10D480000C6AA046CF698E694D690C69CB688A68C1
:10D49000086849687047006041608260C360046149
:10D4A00045618661C761444604624C464462544605
:10D4B00084625C46C462644604636E464663744696
:10D4C0008463C46B043C043925680D60B442F9D10F
:10D4D000C769866945690469704700604160826078
:10D4E000C360046145618661C761444604624C467D
:10D4F0004462544684625C46C462644604636C467B
:10D5000044637446846304697047846BA646446B25
:10D51000A546046BA446C46AA346846AA246446A2C
:10D52000A146046AA046C769866945690469C3685B
:10D53000826800684168704710B5041E0CD009F07D
:10D5400022FC431EE3189C4208D222781978013B42
:10D5500021705A700134F6E7014810BD0020FCE745
:10D5600017FCFFFFF0B585B002900C1E2AD00023F7
:10D57000C217161A56400193019B30005D1C6319B7
:10D580000A215F1E039303F09BFF4942303139703B
:10D5900030000A2103F0AEFE47420600002F0FD1F3
:10D5A000029B002B04DA2D23019D039A0235137090
:10D5B000002320006355FFF7BFFF380005B0F0BD22
:10D5C0000195D9E7004FF8E717FCFFFF0268084B09
:10D5D000406810B5C018C000101803009A4205D862
:10D5E0001C688C4202D31800083BF7E710BDC04608
:10D5F000FFFFFF1F70B5002817D1114D2E68002EB8
:10D6000011D1083009F0B4FA066046600D4E0400EE
:10D610003368002B02D108F0BAF9306023682C601F
:10D620009B00F3586360286870BD012206490748D3
:10D630000B681340F8D1026043600A60F4E7C0460B
:10D64000602600206C2600205C2600206426002036
:10D65000002370B504000160436099420AD1064D71
:10D660002B68002B02D108F092F9286023689B00F8
:10D67000EB586360200070BD6C260020436810B535
:10D680000400002B02D1044809F078F960680368AF
:10D690001B69984710BDC046B47F0200436810B5AF
:10D6A0000400002B02D1044809F068F9606803689F
:10D6B0009B69984710BDC046B47F0200436810B50F
:10D6C0000400002B02D1044809F058F9606803688F
:10D6D0005B6A984710BDC046B47F0200004870479F
:10D6E000FFFF0000F0B597B00593036807AD1B6816
:10D6F0000491039311002B00060091C991C30024EB
:10D70000D36821000C220CA8EB602C6109F0FBFA15
:10D7100022000B4B10940F9311AB1C70191901349C
:10D720004A70102CFAD15A820193059B2A0000936B
:10D7300004990CAB3000039CA04717B0F0BDC04665
:10D740004756020070B5FC30046C0500002C0DD16A
:10D75000242009F00DFA064B44608361054B846078
:10D76000C46004614461C46103602864286C70BDB6
:10D77000A07402008875020070B5FC30C56B04000F
:10D78000002D11D1342009F0F3F9084B8560436076
:10D79000074B45610361074B0562C361064BC562D8
:10D7A0008362064BE0630360E06B70BDD0740200DF
:10D7B000C07402003075020040750200507502000E
:10D7C0007FB503791548002B22D0154E154C3378C0
:10D7D0002000002B1CD102AD280007F011FF00280B
:10D7E00010D16B88592B0DD12B78AA88D91F01290C
:10D7F00010D800920C4A2021200005F06FFB012375
:10D80000337004E020220949200009F0C3FA200007
:10D8100004B070BD0092064AEDE7C046D77F020013
:10D820005629002036290020F97F0200F17F0200EE
:10D830001680020010B50400024B08C007F0C0FFBC
:10D84000200010BDC074020010B50400024B08C0D7
:10D8500007F0CBFF200010BDD0740200064B70B55E
:10D86000040003604068002804D0056909F078F9D5
:10D870002800F8E7200070BDB0740200064B70B5B8
:10D88000040003604068002804D0056909F068F9C5
:10D890002800F8E7200070BDE0740200064B70B568
:10D8A000040003604068002804D0056909F058F9B5
:10D8B0002800F8E7200070BDF0740200064B70B538
:10D8C000040003604068002804D0056909F048F9A5
:10D8D0002800F8E7200070BD30750200064B70B5D7
:10D8E000040003604068002804D0056909F038F995
:10D8F0002800F8E7200070BD40750200064B70B5A7
:10D90000040003604068002804D0056909F028F984
:10D910002800F8E7200070BDD4730200064B70B5F4
:10D92000040003604068002804D0056909F018F974
:10D930002800F8E7200070BDE4730200064B70B5C4
:10D94000040003604068002804D0056909F008F964
:10D950002800F8E7200070BDF4730200064B70B594
:10D96000040003604068002804D0056909F0F8F855
:10D970002800F8E7200070BD04740200064B70B563
:10D98000040003604068002804D0056909F0E8F845
:10D990002800F8E7200070BDA074020070B5FC30CC
:10D9A000046C0500002C0DD1242009F0E1F8064B91
:10D9B00044608361054B8460C46004614461C46158
:10D9C00003602864286C70BDA07402008875020092
:10D9D000104B10B5083303600F4B0400C360802365
:10D9E0000E4A5B00C250C018FCF7FCFE20000C4B36
:10D9F000B830E360FFF7B2FF2000AC30FFF79EFFC6
:10DA00002000A030FFF78AFF20006C30FFF776FF80
:10DA1000200010BDB47502002C7602006877020069
:10DA200014740200F8B505000400AC356B68AB60F7
:10DA3000A868002807D0C36821009847AB68002B6E
:10DA4000F4D01B69F3E72500B0352868002804D01E
:10DA5000066909F085F83000F8E72200FC2128600B
:10DA6000583213780B40137023005C331870200079
:10DA70000A3007F083FF2000343007F07FFF606E2C
:10DA8000002804D0056909F06BF82800F8E72500A4
:10DA9000983560662868002804D0066909F060F8A7
:10DAA0003000F8E72600A43628603568002D05D040
:10DAB0002F69280009F054F83D00F7E72000356091
:10DAC00029000C226C3009F01EF92000074BE56795
:10DAD000A36729000C22803009F015F92300044ABD
